{
  "abi": [
    {
      "inputs": [],
      "name": "REL_ROOT_DEPTH",
      "outputs": [
        {
          "internalType": "uint256",
          "name": "",
          "type": "uint256"
        }
      ],
      "stateMutability": "view",
      "type": "function"
    },
    {
      "inputs": [
        {
          "internalType": "address",
          "name": "voter",
          "type": "address"
        },
        {
          "internalType": "address",
          "name": "recipient",
          "type": "address"
        }
      ],
      "name": "addDagVote",
      "outputs": [],
      "stateMutability": "nonpayable",
      "type": "function"
    },
    {
      "inputs": [
        {
          "internalType": "address",
          "name": "voter",
          "type": "address"
        },
        {
          "internalType": "address",
          "name": "recipient",
          "type": "address"
        }
      ],
      "name": "changeTreeVoteFall",
      "outputs": [],
      "stateMutability": "nonpayable",
      "type": "function"
    },
    {
      "inputs": [
        {
          "internalType": "address",
          "name": "voter",
          "type": "address"
        }
      ],
      "name": "changeTreeVoteRise",
      "outputs": [],
      "stateMutability": "nonpayable",
      "type": "function"
    },
    {
      "inputs": [
        {
          "internalType": "address",
          "name": "voter",
          "type": "address"
        },
        {
          "internalType": "address",
          "name": "recipient",
          "type": "address"
        },
        {
          "internalType": "uint256",
          "name": "maxDistance",
          "type": "uint256"
        }
      ],
      "name": "changeTreeVoteSameHeight",
      "outputs": [],
      "stateMutability": "nonpayable",
      "type": "function"
    },
    {
      "inputs": [
        {
          "internalType": "address",
          "name": "voter",
          "type": "address"
        },
        {
          "internalType": "address",
          "name": "recipient",
          "type": "address"
        }
      ],
      "name": "findDagVote",
      "outputs": [
        {
          "internalType": "bool",
          "name": "voted",
          "type": "bool"
        },
        {
          "internalType": "uint256",
          "name": "depthDiff",
          "type": "uint256"
        },
        {
          "internalType": "uint256",
          "name": "votePos",
          "type": "uint256"
        }
      ],
      "stateMutability": "view",
      "type": "function"
    },
    {
      "inputs": [
        {
          "internalType": "address",
          "name": "voter",
          "type": "address"
        },
        {
          "internalType": "address",
          "name": "recipient",
          "type": "address"
        }
      ],
      "name": "findDepthDiff",
      "outputs": [
        {
          "internalType": "bool",
          "name": "isLocal",
          "type": "bool"
        },
        {
          "internalType": "uint256",
          "name": "depthDiff",
          "type": "uint256"
        }
      ],
      "stateMutability": "view",
      "type": "function"
    },
    {
      "inputs": [
        {
          "internalType": "address",
          "name": "add1",
          "type": "address"
        },
        {
          "internalType": "address",
          "name": "add2",
          "type": "address"
        },
        {
          "internalType": "uint256",
          "name": "maxDistance",
          "type": "uint256"
        }
      ],
      "name": "findDistance",
      "outputs": [
        {
          "internalType": "bool",
          "name": "isLocal",
          "type": "bool"
        },
        {
          "internalType": "uint256",
          "name": "distance",
          "type": "uint256"
        }
      ],
      "stateMutability": "view",
      "type": "function"
    },
    {
      "inputs": [
        {
          "internalType": "address",
          "name": "voter",
          "type": "address"
        },
        {
          "internalType": "address",
          "name": "recipient",
          "type": "address"
        }
      ],
      "name": "findRecDagVote",
      "outputs": [
        {
          "internalType": "bool",
          "name": "voted",
          "type": "bool"
        },
        {
          "internalType": "uint256",
          "name": "depthDiff",
          "type": "uint256"
        },
        {
          "internalType": "uint256",
          "name": "votePos",
          "type": "uint256"
        }
      ],
      "stateMutability": "view",
      "type": "function"
    },
    {
      "inputs": [
        {
          "internalType": "address",
          "name": "voter",
          "type": "address"
        },
        {
          "internalType": "address",
          "name": "recipient",
          "type": "address"
        },
        {
          "internalType": "uint256",
          "name": "depth",
          "type": "uint256"
        }
      ],
      "name": "findRecDagVotePosAtDepth",
      "outputs": [
        {
          "internalType": "bool",
          "name": "voted",
          "type": "bool"
        },
        {
          "internalType": "uint256",
          "name": "votePos",
          "type": "uint256"
        }
      ],
      "stateMutability": "view",
      "type": "function"
    },
    {
      "inputs": [
        {
          "internalType": "address",
          "name": "voter",
          "type": "address"
        },
        {
          "internalType": "address",
          "name": "recipient",
          "type": "address"
        }
      ],
      "name": "findRecTreeVotePos",
      "outputs": [
        {
          "internalType": "bool",
          "name": "voted",
          "type": "bool"
        },
        {
          "internalType": "uint256",
          "name": "votePos",
          "type": "uint256"
        }
      ],
      "stateMutability": "view",
      "type": "function"
    },
    {
      "inputs": [
        {
          "internalType": "address",
          "name": "voter",
          "type": "address"
        }
      ],
      "name": "findRelRoot",
      "outputs": [
        {
          "internalType": "address",
          "name": "relRoot",
          "type": "address"
        }
      ],
      "stateMutability": "view",
      "type": "function"
    },
    {
      "inputs": [
        {
          "internalType": "address",
          "name": "voter",
          "type": "address"
        },
        {
          "internalType": "address",
          "name": "recipient",
          "type": "address"
        },
        {
          "internalType": "uint256",
          "name": "depth",
          "type": "uint256"
        }
      ],
      "name": "findSentDagVotePosAtDepth",
      "outputs": [
        {
          "internalType": "bool",
          "name": "voted",
          "type": "bool"
        },
        {
          "internalType": "uint256",
          "name": "votePos",
          "type": "uint256"
        }
      ],
      "stateMutability": "view",
      "type": "function"
    },
    {
      "inputs": [
        {
          "internalType": "address",
          "name": "voter",
          "type": "address"
        },
        {
          "internalType": "address",
          "name": "recipient",
          "type": "address"
        }
      ],
      "name": "joinTree",
      "outputs": [],
      "stateMutability": "nonpayable",
      "type": "function"
    },
    {
      "inputs": [
        {
          "internalType": "address",
          "name": "voter",
          "type": "address"
        }
      ],
      "name": "joinTreeAsRoot",
      "outputs": [],
      "stateMutability": "nonpayable",
      "type": "function"
    },
    {
      "inputs": [
        {
          "internalType": "address",
          "name": "voter",
          "type": "address"
        },
        {
          "internalType": "uint256",
          "name": "dagVote",
          "type": "uint256"
        },
        {
          "internalType": "uint256",
          "name": "votePos",
          "type": "uint256"
        }
      ],
      "name": "readRecDagVote",
      "outputs": [
        {
          "internalType": "address",
          "name": "",
          "type": "address"
        }
      ],
      "stateMutability": "view",
      "type": "function"
    },
    {
      "inputs": [
        {
          "internalType": "address",
          "name": "voter",
          "type": "address"
        },
        {
          "internalType": "uint256",
          "name": "dagVote",
          "type": "uint256"
        }
      ],
      "name": "readRecDagVoteCount",
      "outputs": [
        {
          "internalType": "uint256",
          "name": "",
          "type": "uint256"
        }
      ],
      "stateMutability": "view",
      "type": "function"
    },
    {
      "inputs": [
        {
          "internalType": "address",
          "name": "voter",
          "type": "address"
        }
      ],
      "name": "readRecDagVoteDiff",
      "outputs": [
        {
          "internalType": "uint256",
          "name": "",
          "type": "uint256"
        }
      ],
      "stateMutability": "view",
      "type": "function"
    },
    {
      "inputs": [
        {
          "internalType": "address",
          "name": "recipient",
          "type": "address"
        },
        {
          "internalType": "uint256",
          "name": "votePos",
          "type": "uint256"
        }
      ],
      "name": "readRecTreeVote",
      "outputs": [
        {
          "internalType": "address",
          "name": "",
          "type": "address"
        }
      ],
      "stateMutability": "view",
      "type": "function"
    },
    {
      "inputs": [
        {
          "internalType": "address",
          "name": "recipient",
          "type": "address"
        }
      ],
      "name": "readRecTreeVoteCount",
      "outputs": [
        {
          "internalType": "uint256",
          "name": "",
          "type": "uint256"
        }
      ],
      "stateMutability": "view",
      "type": "function"
    },
    {
      "inputs": [],
      "name": "readRelRootDepth",
      "outputs": [
        {
          "internalType": "uint256",
          "name": "",
          "type": "uint256"
        }
      ],
      "stateMutability": "view",
      "type": "function"
    },
    {
      "inputs": [
        {
          "internalType": "address",
          "name": "voter",
          "type": "address"
        },
        {
          "internalType": "uint256",
          "name": "dagVote",
          "type": "uint256"
        },
        {
          "internalType": "uint256",
          "name": "votePos",
          "type": "uint256"
        }
      ],
      "name": "readSentDagVote",
      "outputs": [
        {
          "internalType": "address",
          "name": "",
          "type": "address"
        }
      ],
      "stateMutability": "view",
      "type": "function"
    },
    {
      "inputs": [
        {
          "internalType": "address",
          "name": "voter",
          "type": "address"
        },
        {
          "internalType": "uint256",
          "name": "dagVote",
          "type": "uint256"
        }
      ],
      "name": "readSentDagVoteCount",
      "outputs": [
        {
          "internalType": "uint256",
          "name": "",
          "type": "uint256"
        }
      ],
      "stateMutability": "view",
      "type": "function"
    },
    {
      "inputs": [
        {
          "internalType": "address",
          "name": "voter",
          "type": "address"
        }
      ],
      "name": "readSentDagVoteDiff",
      "outputs": [
        {
          "internalType": "uint256",
          "name": "",
          "type": "uint256"
        }
      ],
      "stateMutability": "view",
      "type": "function"
    },
    {
      "inputs": [
        {
          "internalType": "address",
          "name": "voter",
          "type": "address"
        }
      ],
      "name": "readTreeVote",
      "outputs": [
        {
          "internalType": "address",
          "name": "",
          "type": "address"
        }
      ],
      "stateMutability": "view",
      "type": "function"
    },
    {
      "inputs": [
        {
          "internalType": "address",
          "name": "",
          "type": "address"
        },
        {
          "internalType": "uint256",
          "name": "",
          "type": "uint256"
        },
        {
          "internalType": "uint256",
          "name": "",
          "type": "uint256"
        }
      ],
      "name": "recDagVote",
      "outputs": [
        {
          "internalType": "address",
          "name": "",
          "type": "address"
        }
      ],
      "stateMutability": "view",
      "type": "function"
    },
    {
      "inputs": [
        {
          "internalType": "address",
          "name": "",
          "type": "address"
        },
        {
          "internalType": "uint256",
          "name": "",
          "type": "uint256"
        }
      ],
      "name": "recDagVoteCount",
      "outputs": [
        {
          "internalType": "uint256",
          "name": "",
          "type": "uint256"
        }
      ],
      "stateMutability": "view",
      "type": "function"
    },
    {
      "inputs": [
        {
          "internalType": "address",
          "name": "",
          "type": "address"
        }
      ],
      "name": "recDagVoteDiff",
      "outputs": [
        {
          "internalType": "uint256",
          "name": "",
          "type": "uint256"
        }
      ],
      "stateMutability": "view",
      "type": "function"
    },
    {
      "inputs": [
        {
          "internalType": "address",
          "name": "",
          "type": "address"
        },
        {
          "internalType": "uint256",
          "name": "",
          "type": "uint256"
        }
      ],
      "name": "recTreeVote",
      "outputs": [
        {
          "internalType": "address",
          "name": "",
          "type": "address"
        }
      ],
      "stateMutability": "view",
      "type": "function"
    },
    {
      "inputs": [
        {
          "internalType": "address",
          "name": "",
          "type": "address"
        }
      ],
      "name": "recTreeVoteCount",
      "outputs": [
        {
          "internalType": "uint256",
          "name": "",
          "type": "uint256"
        }
      ],
      "stateMutability": "view",
      "type": "function"
    },
    {
      "inputs": [
        {
          "internalType": "address",
          "name": "voter",
          "type": "address"
        },
        {
          "internalType": "address",
          "name": "recipient",
          "type": "address"
        }
      ],
      "name": "removeDagVote",
      "outputs": [],
      "stateMutability": "nonpayable",
      "type": "function"
    },
    {
      "inputs": [
        {
          "internalType": "address",
          "name": "",
          "type": "address"
        },
        {
          "internalType": "uint256",
          "name": "",
          "type": "uint256"
        },
        {
          "internalType": "uint256",
          "name": "",
          "type": "uint256"
        }
      ],
      "name": "sentDagVote",
      "outputs": [
        {
          "internalType": "address",
          "name": "",
          "type": "address"
        }
      ],
      "stateMutability": "view",
      "type": "function"
    },
    {
      "inputs": [
        {
          "internalType": "address",
          "name": "",
          "type": "address"
        },
        {
          "internalType": "uint256",
          "name": "",
          "type": "uint256"
        }
      ],
      "name": "sentDagVoteCount",
      "outputs": [
        {
          "internalType": "uint256",
          "name": "",
          "type": "uint256"
        }
      ],
      "stateMutability": "view",
      "type": "function"
    },
    {
      "inputs": [
        {
          "internalType": "address",
          "name": "",
          "type": "address"
        }
      ],
      "name": "sentDagVoteDiff",
      "outputs": [
        {
          "internalType": "uint256",
          "name": "",
          "type": "uint256"
        }
      ],
      "stateMutability": "view",
      "type": "function"
    },
    {
      "inputs": [
        {
          "internalType": "address",
          "name": "",
          "type": "address"
        }
      ],
      "name": "treeVote",
      "outputs": [
        {
          "internalType": "address",
          "name": "",
          "type": "address"
        }
      ],
      "stateMutability": "view",
      "type": "function"
    }
  ],
  "bytecode": {
    "object": "0x6080604052600660005534801561001557600080fd5b5061228d806100256000396000f3fe608060405234801561001057600080fd5b50600436106102115760003560e01c80636fe60eb411610125578063a571dcd7116100ad578063d5b3cf281161007c578063d5b3cf281461061d578063dc014ac114610630578063dde369ba1461066a578063e649b09e14610693578063f91b0d25146106a657600080fd5b8063a571dcd7146105ac578063b027198b146105bf578063b9aae95d146105ea578063c52aeedb146105fd57600080fd5b806380afecd5116100f457806380afecd5146104ec57806384970539146105225780638ac5e65a1461052b578063965f91431461053e5780639febc4d21461057257600080fd5b80636fe60eb41461047d57806378af7f5f146104855780637a606864146104ae5780637c4ad9e3146104c157600080fd5b80633aaf189b116101a857806350dfbd051161017757806350dfbd05146103d757806353797c3a146103ea578063548792ca1461040a578063627a2eb61461042a5780636ccdb3ed1461043d57600080fd5b80633aaf189b1461035e5780634526b09c146103715780634710550f1461039b57806349bb27e0146103ae57600080fd5b8063321af941116101e4578063321af941146102d25780633797e722146102e557806337ba0eb1146103155780633a47ce831461032857600080fd5b8063046671a814610216578063162e916f1461022b5780631869534d146102515780631b08de3b14610292575b600080fd5b6102296102243660046120fe565b6106d2565b005b61023e610239366004612131565b6108e7565b6040519081526020015b60405180910390f35b61027a61025f36600461215b565b6001602052600090815260409020546001600160a01b031681565b6040516001600160a01b039091168152602001610248565b61027a6102a036600461217d565b6001600160a01b0392831660009081526006602090815260408083209483529381528382209282529190915220541690565b6102296102e03660046120fe565b610912565b6102f86102f33660046120fe565b6109c1565b604080519315158452602084019290925290820152606001610248565b6102296103233660046120fe565b610a10565b61027a610336366004612131565b6001600160a01b03918216600090815260036020908152604080832093835292905220541690565b61027a61036c36600461215b565b610e64565b61038461037f3660046120fe565b610ee1565b604080519215158352602083019190915201610248565b6102296103a93660046120fe565b610fea565b61023e6103bc36600461215b565b6001600160a01b031660009081526002602052604090205490565b6103846103e53660046121b0565b611092565b61023e6103f836600461215b565b60046020526000908152604090205481565b61023e61041836600461215b565b60076020526000908152604090205481565b6103846104383660046121b0565b61116d565b61027a61044b36600461217d565b6001600160a01b0392831660009081526009602090815260408083209483529381528382209282529190915220541690565b60005461023e565b61023e61049336600461215b565b6001600160a01b031660009081526007602052604090205490565b6102296104bc36600461215b565b6112bb565b61023e6104cf366004612131565b600560209081526000928352604080842090915290825290205481565b61023e6104fa366004612131565b6001600160a01b03919091166000908152600860209081526040808320938352929052205490565b61023e60005481565b6103846105393660046121b0565b611310565b61027a61054c366004612131565b60036020908152600092835260408084209091529082529020546001600160a01b031681565b61027a61058036600461217d565b60066020908152600093845260408085208252928452828420905282529020546001600160a01b031681565b6103846105ba3660046120fe565b6113d9565b61023e6105cd366004612131565b600860209081526000928352604080842090915290825290205481565b6102f86105f83660046120fe565b61144b565b61023e61060b36600461215b565b60026020526000908152604090205481565b61022961062b3660046121b0565b611489565b61027a61063e36600461217d565b60096020908152600093845260408085208252928452828420905282529020546001600160a01b031681565b61023e61067836600461215b565b6001600160a01b031660009081526004602052604090205490565b6102296106a136600461215b565b611509565b61027a6106b436600461215b565b6001600160a01b039081166000908152600160205260409020541690565b6000806106df84846109c1565b50909250905081156106f3576106f36121ec565b6001600160a01b03841660009081526006602090815260408083206004909252822054859290610724908590612218565b8152602080820192909252604090810160009081206001600160a01b038916825260058452828220600490945291812054919290918290610766908790612218565b81526020808201929092526040908101600090812054845283830194909452918201832080546001600160a01b0319166001600160a01b03958616179055928716825260058352808220600490935281205460019291906107c8908590612218565b815260200190815260200160002060008282546107e59190612218565b90915550506001600160a01b0383166000908152600960209081526040808320600790925282205486929061081b908590612218565b8152602080820192909252604090810160009081206001600160a01b03881682526008845282822060079094529181205491929091829061085d908790612218565b81526020808201929092526040908101600090812054845283830194909452918201832080546001600160a01b0319166001600160a01b03958616179055928616825260088352808220600790935281205460019291906108bf908590612218565b815260200190815260200160002060008282546108dc9190612218565b909155505050505050565b6001600160a01b03821660009081526005602090815260408083208484529091529020545b92915050565b6001600160a01b03828116600090815260016020526040902054161561093a5761093a6121ec565b6001600160a01b03808316600081815260016020818152604080842080549688166001600160a01b0319978816811790915580855260038352818520600280855283872080548852918552928620805490981690961790965594909252929052546109a491612218565b6001600160a01b0390911660009081526002602052604090205550565b60008060008060006109d38787610ee1565b90925090508115156000036109f45760008060009450945094505050610a09565b6109ff878783611310565b9095509093509150505b9250925092565b6000806000610a1f85856109c1565b91945092509050600183151514610a3857610a386121ec565b6001600160a01b03851660009081526006602090815260408083206004909252822054909190610a69908590612218565b8152602080820192909252604090810160009081206001600160a01b03891682526005845282822060049094529181205491929091600191908390610aaf908890612218565b815260200190815260200160002054610ac8919061222b565b815260208082019290925260409081016000908120546001600160a01b0389811683526006855283832060049095529282205492169291610b0a908690612218565b815260208082019290925260409081016000908120858252835281812080546001600160a01b0319166001600160a01b0395861617905592881683526006825280832060049092528220548290610b62908690612218565b8152602080820192909252604090810160009081206001600160a01b038a1682526005845282822060049094529181205491929091600191908390610ba8908990612218565b815260200190815260200160002054610bc1919061222b565b81526020808201929092526040908101600090812080546001600160a01b0319166001600160a01b03958616179055928816835260058252808320600490925282205460019290610c13908690612218565b81526020019081526020016000206000828254610c30919061222b565b90915550600090508080610c44888861144b565b91945092509050600183151514610c5d57610c5d6121ec565b6001600160a01b03871660009081526009602090815260408083206007909252822054909190610c8e908590612218565b8152602080820192909252604090810160009081206001600160a01b038b1682526008845282822060079094529181205491929091600191908390610cd4908890612218565b815260200190815260200160002054610ced919061222b565b815260208082019290925260409081016000908120546001600160a01b038b811683526009855283832060079095529282205492169291610d2f908690612218565b815260208082019290925260409081016000908120858252835281812080546001600160a01b0319166001600160a01b03958616179055928a1683526009825280832060079092528220548290610d87908690612218565b8152602080820192909252604090810160009081206001600160a01b038c1682526008845282822060079094529181205491929091600191908390610dcd908990612218565b815260200190815260200160002054610de6919061222b565b81526020808201929092526040908101600090812080546001600160a01b0319166001600160a01b03958616179055928a16835260088252808320600790925282205460019290610e38908690612218565b81526020019081526020016000206000828254610e55919061222b565b90915550505050505050505050565b6001600160a01b03818116600090815260016020526040812054909116610e8d57610e8d6121ec565b50806000805b600054811015610eda576001600160a01b03808416600090815260016020526040902054169150600019820115610eda578192508080610ed29061223e565b915050610e93565b5050919050565b6001600160a01b0382811660009081526001602052604081205490918291161580610f2457506001600160a01b0383811660009081526001602052604090205416155b15610f3457506000905080610fe3565b6000610f3f85610e64565b90508360005b6001600054610f54919061222b565b811015610fd857826001600160a01b0316826001600160a01b031603610f9057600181600054610f84919061222b565b94509450505050610fe3565b6001600160a01b03918216600090815260016020526040902054909116906000198201610fc65760008094509450505050610fe3565b80610fd08161223e565b915050610f45565b506000809350935050505b9250929050565b6001600160a01b03808316600090815260016020526040808220548484168352912054821691161461101e5761101e6121ec565b6001600160a01b0381811660009081526001602052604090205416611045576110456121ec565b6001600160a01b038181166000908152600160205260409020541660001901611070576110706121ec565b61107b82600061155e565b611084826115e9565b61108e828261173a565b5050565b6001600160a01b0382166000908152600760205260408120548190815b6001600160a01b0386166000908152600860205260408120906110d28785612218565b81526020019081526020016000205481101561115b576001600160a01b03868116600090815260066020526040812091891691906111108886612218565b8152602080820192909252604090810160009081208582529092529020546001600160a01b031603611149576001935091506111659050565b806111538161223e565b9150506110af565b5060008092509250505b935093915050565b6001600160a01b03838116600090815260016020526040812054909182911615806111b057506001600160a01b0384811660009081526001602052604090205416155b156111c057506000905080611165565b6001600160a01b03858116600090815260016020819052604090912054909116148061120957506001600160a01b03848116600090815260016020819052604090912054909116145b1561121957506000905080611165565b836001600160a01b0316856001600160a01b03160361123e5750600190506000611165565b8260000361125157506000905080611165565b6001600160a01b03808616600090815260016020819052604080832054888516845292205461128a93928316921690610438908761222b565b90925090508115156001036112ae5760016112a58282612218565b91509150611165565b5060009485945092505050565b6001600160a01b03808216600090815260016020526040808220548316825290205416806112eb576112eb6121ec565b6000196001600160a01b03821601611305576113056121ec565b61107b826000611767565b6001600160a01b0383166000908152600460205260408120548190815b6001600160a01b0387166000908152600560205260408120906113508785612218565b81526020019081526020016000205481101561115b576001600160a01b038781166000908152600660205260408120918816919061138e8886612218565b8152602080820192909252604090810160009081208582529092529020546001600160a01b0316036113c7576001935091506111659050565b806113d18161223e565b91505061132d565b60008060005b6001600160a01b0384166000908152600260205260409020548110156112ae576001600160a01b03848116600090815260036020908152604080832085845290915290205481871691160361143957600192509050610fe3565b806114438161223e565b9150506113df565b600080600080600061145d8787610ee1565b909250905081151560000361147e5760008060009450945094505050610a09565b6109ff878783611092565b60006114958484610ee1565b915050806001146114a8576114a86121ec565b6001600160a01b0380851660009081526001602052604081205490916114d09116858561116d565b915050828111156114e3576114e36121ec565b6114ef858260006117ed565b6114f8856115e9565b611502858561173a565b5050505050565b6001600160a01b038181166000908152600160205260409020541615611531576115316121ec565b6001600160a01b0316600090815260016020819052604090912080546001600160a01b0319169091179055565b806000541161156b575050565b61157482611891565b60005b6001600160a01b0383166000908152600260205260409020548110156115e4576001600160a01b038084166000908152600360209081526040808320858452909152902054166115d1816115cc856001612218565b61155e565b50806115dc8161223e565b915050611577565b505050565b6001600160a01b038082166000908152600160205260408120549091169061161183836113d9565b6001600160a01b038416600090815260036020908152604080832060029092528220549294509250906116469060019061222b565b815260208082019290925260409081016000908120546001600160a01b038681168084526003865284842087855280875285852080546001600160a01b031916939094169290921790925590825260029093529081205490919082906116ae9060019061222b565b81526020808201929092526040908101600090812080546001600160a01b0319166001600160a01b03958616179055928516835260029091529020546116f69060019061222b565b6001600160a01b0392831660009081526002602090815260408083209390935594909316835260019384905290912080546001600160a01b03191690921790915550565b6001600160a01b038281166000908152600160208190526040909120549091161461093a5761093a6121ec565b8060005411611774575050565b61177d82611914565b60005b6001600160a01b0383166000908152600260205260409020548110156115e4576001600160a01b038084166000908152600360209081526040808320858452909152902054166117da816117d5856001612218565b611767565b50806117e58161223e565b915050611780565b81816000546117fc919061222b565b101561180c5761180c8382611990565b600054810361181a57505050565b60005b6001600160a01b03841660009081526002602052604090205481101561188b576001600160a01b038085166000908152600360209081526040808320858452909152902054166118788185611873866001612218565b6117ed565b50806118838161223e565b91505061181d565b50505050565b6118a98160016000546118a4919061222b565b6119ff565b6001600160a01b03811660009081526004602052604081208054600192906118d290849061222b565b909155506118e39050816001611d7b565b6001600160a01b038116600090815260076020526040812080546001929061190c908490612218565b909155505050565b61191f8160016119ff565b6001600160a01b0381166000908152600460205260408120805460019290611948908490612218565b92505081905550611967816001600054611962919061222b565b611d7b565b6001600160a01b038116600090815260076020526040812080546001929061190c90849061222b565b6001600160a01b0382166000908152600460205260408120546119b4908390612218565b90505b600080546001600160a01b038516825260046020526040909120546119dc9190612218565b8110156115e4576119ed83826119ff565b806119f78161223e565b9150506119b7565b60005b6001600160a01b03831660009081526005602090815260408083206004909252822054909190611a33908590612218565b815260200190815260200160002054811015611d35576001600160a01b038316600090815260066020908152604080832060049092528220548290611a79908690612218565b8152602080820192909252604090810160009081208582529092528120546001600160a01b03169150611aad858386611092565b6001600160a01b03841660009081526009602090815260408083206007909252822054929450925090611ae1908790612218565b8152602080820192909252604090810160009081206001600160a01b03861682526008845282822060079094529181205491929091600191908390611b27908a90612218565b815260200190815260200160002054611b40919061222b565b815260208082019290925260409081016000908120546001600160a01b0386811683526009855283832060079095529282205492169291611b82908890612218565b815260208082019290925260409081016000908120858252835281812080546001600160a01b0319166001600160a01b0395861617905592851683526009825280832060079092528220548290611bda908890612218565b8152602080820192909252604090810160009081206001600160a01b03871682526008845282822060079094529181205491929091600191908390611c20908b90612218565b815260200190815260200160002054611c39919061222b565b81526020808201929092526040908101600090812080546001600160a01b0319166001600160a01b03958616179055928516835260088252808320600790925282205460019290611c8b908890612218565b81526020019081526020016000206000828254611ca8919061222b565b90915550506001600160a01b038516600090815260066020908152604080832060049092528220548290611cdd908890612218565b8152602001908152602001600020600085815260200190815260200160002060006101000a8154816001600160a01b0302191690836001600160a01b0316021790555050508080611d2d9061223e565b915050611a02565b506001600160a01b038216600090815260056020908152604080832060049092528220548290611d66908590612218565b81526020810191909152604001600020555050565b60005b6001600160a01b03831660009081526008602090815260408083206007909252822054909190611daf908590612218565b8152602001908152602001600020548110156120b1576001600160a01b038316600090815260096020908152604080832060079092528220548290611df5908690612218565b8152602080820192909252604090810160009081208582529092528120546001600160a01b03169150611e29828686611310565b6001600160a01b03841660009081526006602090815260408083206004909252822054929450925090611e5d908790612218565b8152602080820192909252604090810160009081206001600160a01b03861682526005845282822060049094529181205491929091600191908390611ea3908a90612218565b815260200190815260200160002054611ebc919061222b565b815260208082019290925260409081016000908120546001600160a01b0386811683526006855283832060049095529282205492169291611efe908890612218565b815260208082019290925260409081016000908120858252835281812080546001600160a01b0319166001600160a01b0395861617905592851683526006825280832060049092528220548290611f56908890612218565b8152602080820192909252604090810160009081206001600160a01b03871682526005845282822060049094529181205491929091600191908390611f9c908b90612218565b815260200190815260200160002054611fb5919061222b565b81526020808201929092526040908101600090812080546001600160a01b0319166001600160a01b03958616179055928516835260058252808320600490925282205460019290612007908890612218565b81526020019081526020016000206000828254612024919061222b565b90915550506001600160a01b038516600090815260096020908152604080832060079092528220548290612059908890612218565b8152602001908152602001600020600085815260200190815260200160002060006101000a8154816001600160a01b0302191690836001600160a01b03160217905550505080806120a99061223e565b915050611d7e565b506001600160a01b038216600090815260086020908152604080832060079092528220548290611d66908590612218565b80356001600160a01b03811681146120f957600080fd5b919050565b6000806040838503121561211157600080fd5b61211a836120e2565b9150612128602084016120e2565b90509250929050565b6000806040838503121561214457600080fd5b61214d836120e2565b946020939093013593505050565b60006020828403121561216d57600080fd5b612176826120e2565b9392505050565b60008060006060848603121561219257600080fd5b61219b846120e2565b95602085013595506040909401359392505050565b6000806000606084860312156121c557600080fd5b6121ce846120e2565b92506121dc602085016120e2565b9150604084013590509250925092565b634e487b7160e01b600052600160045260246000fd5b634e487b7160e01b600052601160045260246000fd5b8082018082111561090c5761090c612202565b8181038181111561090c5761090c612202565b60006001820161225057612250612202565b506001019056fea26469706673582212208912fd264aa16c80c11c48a86b4ffc367cae0d01ff36460c2aec17b79e1486c064736f6c63430008110033",
    "linkReferences": {}
  },
  "methodIdentifiers": {
    "REL_ROOT_DEPTH()": "84970539",
    "addDagVote(address,address)": "046671a8",
    "changeTreeVoteFall(address,address)": "4710550f",
    "changeTreeVoteRise(address)": "7a606864",
    "changeTreeVoteSameHeight(address,address,uint256)": "d5b3cf28",
    "findDagVote(address,address)": "3797e722",
    "findDepthDiff(address,address)": "4526b09c",
    "findDistance(address,address,uint256)": "627a2eb6",
    "findRecDagVote(address,address)": "b9aae95d",
    "findRecDagVotePosAtDepth(address,address,uint256)": "50dfbd05",
    "findRecTreeVotePos(address,address)": "a571dcd7",
    "findRelRoot(address)": "3aaf189b",
    "findSentDagVotePosAtDepth(address,address,uint256)": "8ac5e65a",
    "joinTree(address,address)": "321af941",
    "joinTreeAsRoot(address)": "e649b09e",
    "readRecDagVote(address,uint256,uint256)": "6ccdb3ed",
    "readRecDagVoteCount(address,uint256)": "80afecd5",
    "readRecDagVoteDiff(address)": "78af7f5f",
    "readRecTreeVote(address,uint256)": "3a47ce83",
    "readRecTreeVoteCount(address)": "49bb27e0",
    "readRelRootDepth()": "6fe60eb4",
    "readSentDagVote(address,uint256,uint256)": "1b08de3b",
    "readSentDagVoteCount(address,uint256)": "162e916f",
    "readSentDagVoteDiff(address)": "dde369ba",
    "readTreeVote(address)": "f91b0d25",
    "recDagVote(address,uint256,uint256)": "dc014ac1",
    "recDagVoteCount(address,uint256)": "b027198b",
    "recDagVoteDiff(address)": "548792ca",
    "recTreeVote(address,uint256)": "965f9143",
    "recTreeVoteCount(address)": "c52aeedb",
    "removeDagVote(address,address)": "37ba0eb1",
    "sentDagVote(address,uint256,uint256)": "9febc4d2",
    "sentDagVoteCount(address,uint256)": "7c4ad9e3",
    "sentDagVoteDiff(address)": "53797c3a",
    "treeVote(address)": "1869534d"
  },
  "id": 16
}