{
  "abi": [
    {
      "inputs": [],
      "stateMutability": "nonpayable",
      "type": "constructor"
    },
    {
      "anonymous": false,
      "inputs": [
        {
          "indexed": false,
          "internalType": "string",
          "name": "str",
          "type": "string"
        },
        {
          "indexed": false,
          "internalType": "uint256",
          "name": "randint",
          "type": "uint256"
        }
      ],
      "name": "SimpleEventForUpdates",
      "type": "event"
    },
    {
      "inputs": [
        {
          "internalType": "address",
          "name": "voter",
          "type": "address"
        },
        {
          "internalType": "address",
          "name": "recipient",
          "type": "address"
        },
        {
          "internalType": "uint32",
          "name": "weight",
          "type": "uint32"
        }
      ],
      "name": "addDagVote",
      "outputs": [],
      "stateMutability": "nonpayable",
      "type": "function"
    },
    {
      "inputs": [
        {
          "internalType": "address",
          "name": "voter",
          "type": "address"
        }
      ],
      "name": "calculateReputation",
      "outputs": [
        {
          "internalType": "uint256",
          "name": "",
          "type": "uint256"
        }
      ],
      "stateMutability": "nonpayable",
      "type": "function"
    },
    {
      "inputs": [
        {
          "internalType": "address",
          "name": "recipient",
          "type": "address"
        },
        {
          "internalType": "uint32",
          "name": "rdist",
          "type": "uint32"
        },
        {
          "internalType": "uint32",
          "name": "depth",
          "type": "uint32"
        },
        {
          "internalType": "uint32",
          "name": "oldRDist",
          "type": "uint32"
        },
        {
          "internalType": "uint32",
          "name": "oldDepth",
          "type": "uint32"
        }
      ],
      "name": "changeDistDepthFromRecCellOnOp",
      "outputs": [],
      "stateMutability": "nonpayable",
      "type": "function"
    },
    {
      "inputs": [
        {
          "internalType": "address",
          "name": "recipient",
          "type": "address"
        },
        {
          "internalType": "uint32",
          "name": "rdist",
          "type": "uint32"
        },
        {
          "internalType": "uint32",
          "name": "depth",
          "type": "uint32"
        },
        {
          "internalType": "uint32",
          "name": "rPos",
          "type": "uint32"
        },
        {
          "internalType": "uint32",
          "name": "newRDist",
          "type": "uint32"
        },
        {
          "internalType": "uint32",
          "name": "newDepth",
          "type": "uint32"
        },
        {
          "internalType": "address",
          "name": "voter",
          "type": "address"
        },
        {
          "internalType": "uint32",
          "name": "sPos",
          "type": "uint32"
        },
        {
          "internalType": "uint32",
          "name": "weight",
          "type": "uint32"
        }
      ],
      "name": "changeDistDepthRec",
      "outputs": [],
      "stateMutability": "nonpayable",
      "type": "function"
    },
    {
      "inputs": [
        {
          "internalType": "address",
          "name": "voter",
          "type": "address"
        },
        {
          "internalType": "uint32",
          "name": "sdist",
          "type": "uint32"
        },
        {
          "internalType": "uint32",
          "name": "depth",
          "type": "uint32"
        },
        {
          "internalType": "uint32",
          "name": "sPos",
          "type": "uint32"
        },
        {
          "internalType": "uint32",
          "name": "newSDist",
          "type": "uint32"
        },
        {
          "internalType": "uint32",
          "name": "newDepth",
          "type": "uint32"
        },
        {
          "internalType": "address",
          "name": "recipient",
          "type": "address"
        },
        {
          "internalType": "uint32",
          "name": "rPos",
          "type": "uint32"
        },
        {
          "internalType": "uint32",
          "name": "weight",
          "type": "uint32"
        }
      ],
      "name": "changeDistDepthSent",
      "outputs": [],
      "stateMutability": "nonpayable",
      "type": "function"
    },
    {
      "inputs": [
        {
          "internalType": "address",
          "name": "voter",
          "type": "address"
        },
        {
          "internalType": "string",
          "name": "name",
          "type": "string"
        }
      ],
      "name": "changeName",
      "outputs": [],
      "stateMutability": "nonpayable",
      "type": "function"
    },
    {
      "inputs": [
        {
          "internalType": "address",
          "name": "voter",
          "type": "address"
        },
        {
          "internalType": "uint32",
          "name": "rdistDestination",
          "type": "uint32"
        }
      ],
      "name": "collapseRecDagVoteIntoColumn",
      "outputs": [],
      "stateMutability": "nonpayable",
      "type": "function"
    },
    {
      "inputs": [
        {
          "internalType": "address",
          "name": "voter",
          "type": "address"
        },
        {
          "internalType": "uint32",
          "name": "sdistDestination",
          "type": "uint32"
        }
      ],
      "name": "collapseSentDagVoteIntoColumn",
      "outputs": [],
      "stateMutability": "nonpayable",
      "type": "function"
    },
    {
      "inputs": [],
      "name": "dag",
      "outputs": [
        {
          "internalType": "uint32",
          "name": "decimalPoint",
          "type": "uint32"
        },
        {
          "internalType": "uint32",
          "name": "MAX_REL_ROOT_DEPTH",
          "type": "uint32"
        },
        {
          "internalType": "address",
          "name": "root",
          "type": "address"
        }
      ],
      "stateMutability": "view",
      "type": "function"
    },
    {
      "inputs": [
        {
          "internalType": "address",
          "name": "add1",
          "type": "address"
        },
        {
          "internalType": "address",
          "name": "add2",
          "type": "address"
        }
      ],
      "name": "findDistAtSameDepth",
      "outputs": [
        {
          "internalType": "bool",
          "name": "isSameDepth",
          "type": "bool"
        },
        {
          "internalType": "uint32",
          "name": "distance",
          "type": "uint32"
        }
      ],
      "stateMutability": "view",
      "type": "function"
    },
    {
      "inputs": [
        {
          "internalType": "address",
          "name": "recipient",
          "type": "address"
        },
        {
          "internalType": "uint32",
          "name": "rdist",
          "type": "uint32"
        },
        {
          "internalType": "uint32",
          "name": "depth",
          "type": "uint32"
        }
      ],
      "name": "findLastRecDagVoteAtDistDepth",
      "outputs": [
        {
          "internalType": "bool",
          "name": "voted",
          "type": "bool"
        },
        {
          "internalType": "uint32",
          "name": "votePos",
          "type": "uint32"
        },
        {
          "components": [
            {
              "internalType": "address",
              "name": "id",
              "type": "address"
            },
            {
              "internalType": "uint32",
              "name": "weight",
              "type": "uint32"
            },
            {
              "internalType": "uint32",
              "name": "posInOther",
              "type": "uint32"
            }
          ],
          "internalType": "struct DagVote",
          "name": "vote",
          "type": "tuple"
        }
      ],
      "stateMutability": "view",
      "type": "function"
    },
    {
      "inputs": [
        {
          "internalType": "address",
          "name": "voter",
          "type": "address"
        },
        {
          "internalType": "uint32",
          "name": "sdist",
          "type": "uint32"
        },
        {
          "internalType": "uint32",
          "name": "depth",
          "type": "uint32"
        }
      ],
      "name": "findLastSentDagVoteAtDistDepth",
      "outputs": [
        {
          "internalType": "bool",
          "name": "voted",
          "type": "bool"
        },
        {
          "internalType": "uint32",
          "name": "votePos",
          "type": "uint32"
        },
        {
          "components": [
            {
              "internalType": "address",
              "name": "id",
              "type": "address"
            },
            {
              "internalType": "uint32",
              "name": "weight",
              "type": "uint32"
            },
            {
              "internalType": "uint32",
              "name": "posInOther",
              "type": "uint32"
            }
          ],
          "internalType": "struct DagVote",
          "name": "vote",
          "type": "tuple"
        }
      ],
      "stateMutability": "view",
      "type": "function"
    },
    {
      "inputs": [
        {
          "internalType": "address",
          "name": "voter",
          "type": "address"
        },
        {
          "internalType": "uint32",
          "name": "height",
          "type": "uint32"
        }
      ],
      "name": "findNthParent",
      "outputs": [
        {
          "internalType": "address",
          "name": "parent",
          "type": "address"
        }
      ],
      "stateMutability": "view",
      "type": "function"
    },
    {
      "inputs": [
        {
          "internalType": "address",
          "name": "voter",
          "type": "address"
        },
        {
          "internalType": "address",
          "name": "recipient",
          "type": "address"
        }
      ],
      "name": "findRecDagVote",
      "outputs": [
        {
          "internalType": "bool",
          "name": "votable",
          "type": "bool"
        },
        {
          "internalType": "bool",
          "name": "voted",
          "type": "bool"
        },
        {
          "internalType": "uint32",
          "name": "rdist",
          "type": "uint32"
        },
        {
          "internalType": "uint32",
          "name": "depth",
          "type": "uint32"
        },
        {
          "internalType": "uint32",
          "name": "votePos",
          "type": "uint32"
        },
        {
          "components": [
            {
              "internalType": "address",
              "name": "id",
              "type": "address"
            },
            {
              "internalType": "uint32",
              "name": "weight",
              "type": "uint32"
            },
            {
              "internalType": "uint32",
              "name": "posInOther",
              "type": "uint32"
            }
          ],
          "internalType": "struct DagVote",
          "name": "dagVote",
          "type": "tuple"
        }
      ],
      "stateMutability": "view",
      "type": "function"
    },
    {
      "inputs": [
        {
          "internalType": "address",
          "name": "voter",
          "type": "address"
        },
        {
          "internalType": "address",
          "name": "recipient",
          "type": "address"
        },
        {
          "internalType": "uint32",
          "name": "rdist",
          "type": "uint32"
        },
        {
          "internalType": "uint32",
          "name": "depth",
          "type": "uint32"
        }
      ],
      "name": "findRecDagVotePosAtDistDepth",
      "outputs": [
        {
          "internalType": "bool",
          "name": "voted",
          "type": "bool"
        },
        {
          "internalType": "uint32",
          "name": "votePos",
          "type": "uint32"
        },
        {
          "components": [
            {
              "internalType": "address",
              "name": "id",
              "type": "address"
            },
            {
              "internalType": "uint32",
              "name": "weight",
              "type": "uint32"
            },
            {
              "internalType": "uint32",
              "name": "posInOther",
              "type": "uint32"
            }
          ],
          "internalType": "struct DagVote",
          "name": "vote",
          "type": "tuple"
        }
      ],
      "stateMutability": "view",
      "type": "function"
    },
    {
      "inputs": [
        {
          "internalType": "address",
          "name": "voter",
          "type": "address"
        },
        {
          "internalType": "address",
          "name": "recipient",
          "type": "address"
        }
      ],
      "name": "findRecTreeVotePos",
      "outputs": [
        {
          "internalType": "bool",
          "name": "voted",
          "type": "bool"
        },
        {
          "internalType": "uint32",
          "name": "votePos",
          "type": "uint32"
        }
      ],
      "stateMutability": "view",
      "type": "function"
    },
    {
      "inputs": [
        {
          "internalType": "address",
          "name": "voter",
          "type": "address"
        },
        {
          "internalType": "address",
          "name": "recipient",
          "type": "address"
        }
      ],
      "name": "findRelDepth",
      "outputs": [
        {
          "internalType": "bool",
          "name": "isLocal",
          "type": "bool"
        },
        {
          "internalType": "uint32",
          "name": "relDepth",
          "type": "uint32"
        }
      ],
      "stateMutability": "view",
      "type": "function"
    },
    {
      "inputs": [
        {
          "internalType": "address",
          "name": "voter",
          "type": "address"
        }
      ],
      "name": "findRelRoot",
      "outputs": [
        {
          "internalType": "address",
          "name": "relRoot",
          "type": "address"
        },
        {
          "internalType": "uint32",
          "name": "relDepth",
          "type": "uint32"
        }
      ],
      "stateMutability": "view",
      "type": "function"
    },
    {
      "inputs": [
        {
          "internalType": "address",
          "name": "voter",
          "type": "address"
        },
        {
          "internalType": "address",
          "name": "recipient",
          "type": "address"
        }
      ],
      "name": "findSDistDepth",
      "outputs": [
        {
          "internalType": "bool",
          "name": "isLocal",
          "type": "bool"
        },
        {
          "internalType": "uint32",
          "name": "distance",
          "type": "uint32"
        },
        {
          "internalType": "uint32",
          "name": "relDepth",
          "type": "uint32"
        }
      ],
      "stateMutability": "view",
      "type": "function"
    },
    {
      "inputs": [
        {
          "internalType": "address",
          "name": "voter",
          "type": "address"
        },
        {
          "internalType": "address",
          "name": "recipient",
          "type": "address"
        }
      ],
      "name": "findSentDagVote",
      "outputs": [
        {
          "internalType": "bool",
          "name": "votable",
          "type": "bool"
        },
        {
          "internalType": "bool",
          "name": "voted",
          "type": "bool"
        },
        {
          "internalType": "uint32",
          "name": "sdist",
          "type": "uint32"
        },
        {
          "internalType": "uint32",
          "name": "depth",
          "type": "uint32"
        },
        {
          "internalType": "uint32",
          "name": "votePos",
          "type": "uint32"
        },
        {
          "components": [
            {
              "internalType": "address",
              "name": "id",
              "type": "address"
            },
            {
              "internalType": "uint32",
              "name": "weight",
              "type": "uint32"
            },
            {
              "internalType": "uint32",
              "name": "posInOther",
              "type": "uint32"
            }
          ],
          "internalType": "struct DagVote",
          "name": "dagVote",
          "type": "tuple"
        }
      ],
      "stateMutability": "view",
      "type": "function"
    },
    {
      "inputs": [
        {
          "internalType": "address",
          "name": "voter",
          "type": "address"
        },
        {
          "internalType": "address",
          "name": "recipient",
          "type": "address"
        },
        {
          "internalType": "uint32",
          "name": "sdist",
          "type": "uint32"
        },
        {
          "internalType": "uint32",
          "name": "depth",
          "type": "uint32"
        }
      ],
      "name": "findSentDagVotePosAtDistDepth",
      "outputs": [
        {
          "internalType": "bool",
          "name": "voted",
          "type": "bool"
        },
        {
          "internalType": "uint32",
          "name": "votePos",
          "type": "uint32"
        },
        {
          "components": [
            {
              "internalType": "address",
              "name": "id",
              "type": "address"
            },
            {
              "internalType": "uint32",
              "name": "weight",
              "type": "uint32"
            },
            {
              "internalType": "uint32",
              "name": "posInOther",
              "type": "uint32"
            }
          ],
          "internalType": "struct DagVote",
          "name": "vote",
          "type": "tuple"
        }
      ],
      "stateMutability": "view",
      "type": "function"
    },
    {
      "inputs": [
        {
          "internalType": "address",
          "name": "voter",
          "type": "address"
        },
        {
          "internalType": "address",
          "name": "recipient",
          "type": "address"
        },
        {
          "internalType": "address",
          "name": "replaced",
          "type": "address"
        },
        {
          "internalType": "uint32",
          "name": "moveDist",
          "type": "uint32"
        },
        {
          "internalType": "uint32",
          "name": "depthToRec",
          "type": "uint32"
        }
      ],
      "name": "handleDagVoteMoveFall",
      "outputs": [],
      "stateMutability": "nonpayable",
      "type": "function"
    },
    {
      "inputs": [
        {
          "internalType": "address",
          "name": "voter",
          "type": "address"
        },
        {
          "internalType": "address",
          "name": "recipient",
          "type": "address"
        },
        {
          "internalType": "address",
          "name": "replaced",
          "type": "address"
        },
        {
          "internalType": "uint32",
          "name": "moveDist",
          "type": "uint32"
        },
        {
          "internalType": "uint32",
          "name": "depthToRec",
          "type": "uint32"
        }
      ],
      "name": "handleDagVoteMoveRise",
      "outputs": [],
      "stateMutability": "nonpayable",
      "type": "function"
    },
    {
      "inputs": [
        {
          "internalType": "address",
          "name": "voter",
          "type": "address"
        }
      ],
      "name": "handleLeavingVoterBranch",
      "outputs": [],
      "stateMutability": "nonpayable",
      "type": "function"
    },
    {
      "inputs": [
        {
          "internalType": "address",
          "name": "voter",
          "type": "address"
        },
        {
          "internalType": "string",
          "name": "name",
          "type": "string"
        },
        {
          "internalType": "address",
          "name": "recipient",
          "type": "address"
        }
      ],
      "name": "joinTree",
      "outputs": [],
      "stateMutability": "nonpayable",
      "type": "function"
    },
    {
      "inputs": [
        {
          "internalType": "address",
          "name": "voter",
          "type": "address"
        },
        {
          "internalType": "string",
          "name": "name",
          "type": "string"
        }
      ],
      "name": "joinTreeAsRoot",
      "outputs": [],
      "stateMutability": "nonpayable",
      "type": "function"
    },
    {
      "inputs": [
        {
          "internalType": "address",
          "name": "voter",
          "type": "address"
        }
      ],
      "name": "leaveTree",
      "outputs": [],
      "stateMutability": "nonpayable",
      "type": "function"
    },
    {
      "inputs": [
        {
          "internalType": "address",
          "name": "voter",
          "type": "address"
        },
        {
          "internalType": "uint32",
          "name": "diff",
          "type": "uint32"
        }
      ],
      "name": "moveRecDagVoteDownLeftRising",
      "outputs": [],
      "stateMutability": "nonpayable",
      "type": "function"
    },
    {
      "inputs": [
        {
          "internalType": "address",
          "name": "voter",
          "type": "address"
        },
        {
          "internalType": "address",
          "name": "recipient",
          "type": "address"
        }
      ],
      "name": "moveTreeVote",
      "outputs": [],
      "stateMutability": "nonpayable",
      "type": "function"
    },
    {
      "inputs": [
        {
          "internalType": "address",
          "name": "pulledVoter",
          "type": "address"
        },
        {
          "internalType": "address",
          "name": "parent",
          "type": "address"
        }
      ],
      "name": "pullUpBranch",
      "outputs": [],
      "stateMutability": "nonpayable",
      "type": "function"
    },
    {
      "inputs": [
        {
          "internalType": "address",
          "name": "voter",
          "type": "address"
        }
      ],
      "name": "readDepth",
      "outputs": [
        {
          "internalType": "uint32",
          "name": "",
          "type": "uint32"
        }
      ],
      "stateMutability": "view",
      "type": "function"
    },
    {
      "inputs": [],
      "name": "readMaxRelRootDepth",
      "outputs": [
        {
          "internalType": "uint32",
          "name": "",
          "type": "uint32"
        }
      ],
      "stateMutability": "view",
      "type": "function"
    },
    {
      "inputs": [
        {
          "internalType": "address",
          "name": "voter",
          "type": "address"
        }
      ],
      "name": "readName",
      "outputs": [
        {
          "internalType": "string",
          "name": "",
          "type": "string"
        }
      ],
      "stateMutability": "view",
      "type": "function"
    },
    {
      "inputs": [
        {
          "internalType": "address",
          "name": "recipient",
          "type": "address"
        },
        {
          "internalType": "uint32",
          "name": "rdist",
          "type": "uint32"
        },
        {
          "internalType": "uint32",
          "name": "depth",
          "type": "uint32"
        },
        {
          "internalType": "uint32",
          "name": "votePos",
          "type": "uint32"
        }
      ],
      "name": "readRecDagVote",
      "outputs": [
        {
          "components": [
            {
              "internalType": "address",
              "name": "id",
              "type": "address"
            },
            {
              "internalType": "uint32",
              "name": "weight",
              "type": "uint32"
            },
            {
              "internalType": "uint32",
              "name": "posInOther",
              "type": "uint32"
            }
          ],
          "internalType": "struct DagVote",
          "name": "",
          "type": "tuple"
        }
      ],
      "stateMutability": "view",
      "type": "function"
    },
    {
      "inputs": [
        {
          "internalType": "address",
          "name": "recipient",
          "type": "address"
        },
        {
          "internalType": "uint32",
          "name": "rdist",
          "type": "uint32"
        },
        {
          "internalType": "uint32",
          "name": "depth",
          "type": "uint32"
        }
      ],
      "name": "readRecDagVoteCount",
      "outputs": [
        {
          "internalType": "uint32",
          "name": "",
          "type": "uint32"
        }
      ],
      "stateMutability": "view",
      "type": "function"
    },
    {
      "inputs": [
        {
          "internalType": "address",
          "name": "recipient",
          "type": "address"
        }
      ],
      "name": "readRecDagVoteDepthDiff",
      "outputs": [
        {
          "internalType": "uint32",
          "name": "",
          "type": "uint32"
        }
      ],
      "stateMutability": "view",
      "type": "function"
    },
    {
      "inputs": [
        {
          "internalType": "address",
          "name": "recipient",
          "type": "address"
        }
      ],
      "name": "readRecDagVoteDistDiff",
      "outputs": [
        {
          "internalType": "uint32",
          "name": "",
          "type": "uint32"
        }
      ],
      "stateMutability": "view",
      "type": "function"
    },
    {
      "inputs": [
        {
          "internalType": "address",
          "name": "recipient",
          "type": "address"
        },
        {
          "internalType": "uint32",
          "name": "votePos",
          "type": "uint32"
        }
      ],
      "name": "readRecTreeVote",
      "outputs": [
        {
          "internalType": "address",
          "name": "",
          "type": "address"
        }
      ],
      "stateMutability": "view",
      "type": "function"
    },
    {
      "inputs": [
        {
          "internalType": "address",
          "name": "recipient",
          "type": "address"
        }
      ],
      "name": "readRecTreeVoteCount",
      "outputs": [
        {
          "internalType": "uint32",
          "name": "",
          "type": "uint32"
        }
      ],
      "stateMutability": "view",
      "type": "function"
    },
    {
      "inputs": [
        {
          "internalType": "address",
          "name": "voter",
          "type": "address"
        }
      ],
      "name": "readReputation",
      "outputs": [
        {
          "internalType": "uint256",
          "name": "",
          "type": "uint256"
        }
      ],
      "stateMutability": "view",
      "type": "function"
    },
    {
      "inputs": [],
      "name": "readRoot",
      "outputs": [
        {
          "internalType": "address",
          "name": "",
          "type": "address"
        }
      ],
      "stateMutability": "view",
      "type": "function"
    },
    {
      "inputs": [
        {
          "internalType": "address",
          "name": "voter",
          "type": "address"
        },
        {
          "internalType": "uint32",
          "name": "sdist",
          "type": "uint32"
        },
        {
          "internalType": "uint32",
          "name": "depth",
          "type": "uint32"
        },
        {
          "internalType": "uint32",
          "name": "votePos",
          "type": "uint32"
        }
      ],
      "name": "readSentDagVote",
      "outputs": [
        {
          "components": [
            {
              "internalType": "address",
              "name": "id",
              "type": "address"
            },
            {
              "internalType": "uint32",
              "name": "weight",
              "type": "uint32"
            },
            {
              "internalType": "uint32",
              "name": "posInOther",
              "type": "uint32"
            }
          ],
          "internalType": "struct DagVote",
          "name": "",
          "type": "tuple"
        }
      ],
      "stateMutability": "view",
      "type": "function"
    },
    {
      "inputs": [
        {
          "internalType": "address",
          "name": "voter",
          "type": "address"
        },
        {
          "internalType": "uint32",
          "name": "sdist",
          "type": "uint32"
        },
        {
          "internalType": "uint32",
          "name": "depth",
          "type": "uint32"
        }
      ],
      "name": "readSentDagVoteCount",
      "outputs": [
        {
          "internalType": "uint32",
          "name": "",
          "type": "uint32"
        }
      ],
      "stateMutability": "view",
      "type": "function"
    },
    {
      "inputs": [
        {
          "internalType": "address",
          "name": "voter",
          "type": "address"
        }
      ],
      "name": "readSentDagVoteDepthDiff",
      "outputs": [
        {
          "internalType": "uint32",
          "name": "",
          "type": "uint32"
        }
      ],
      "stateMutability": "view",
      "type": "function"
    },
    {
      "inputs": [
        {
          "internalType": "address",
          "name": "voter",
          "type": "address"
        }
      ],
      "name": "readSentDagVoteDistDiff",
      "outputs": [
        {
          "internalType": "uint32",
          "name": "",
          "type": "uint32"
        }
      ],
      "stateMutability": "view",
      "type": "function"
    },
    {
      "inputs": [
        {
          "internalType": "address",
          "name": "voter",
          "type": "address"
        }
      ],
      "name": "readSentDagVoteTotalWeight",
      "outputs": [
        {
          "internalType": "uint32",
          "name": "",
          "type": "uint32"
        }
      ],
      "stateMutability": "view",
      "type": "function"
    },
    {
      "inputs": [
        {
          "internalType": "address",
          "name": "voter",
          "type": "address"
        }
      ],
      "name": "readSentTreeVote",
      "outputs": [
        {
          "internalType": "address",
          "name": "",
          "type": "address"
        }
      ],
      "stateMutability": "view",
      "type": "function"
    },
    {
      "inputs": [
        {
          "internalType": "address",
          "name": "recipient",
          "type": "address"
        },
        {
          "internalType": "uint32",
          "name": "rdist",
          "type": "uint32"
        },
        {
          "internalType": "uint32",
          "name": "depth",
          "type": "uint32"
        },
        {
          "internalType": "address",
          "name": "voter",
          "type": "address"
        },
        {
          "internalType": "uint32",
          "name": "weight",
          "type": "uint32"
        },
        {
          "internalType": "uint32",
          "name": "sPos",
          "type": "uint32"
        }
      ],
      "name": "recDagAppend",
      "outputs": [],
      "stateMutability": "nonpayable",
      "type": "function"
    },
    {
      "inputs": [
        {
          "internalType": "address",
          "name": "voter",
          "type": "address"
        },
        {
          "internalType": "address",
          "name": "recipient",
          "type": "address"
        }
      ],
      "name": "removeDagVote",
      "outputs": [],
      "stateMutability": "nonpayable",
      "type": "function"
    },
    {
      "inputs": [
        {
          "internalType": "address",
          "name": "recipient",
          "type": "address"
        },
        {
          "internalType": "uint32",
          "name": "rdist",
          "type": "uint32"
        },
        {
          "internalType": "uint32",
          "name": "depth",
          "type": "uint32"
        }
      ],
      "name": "removeRecDagVoteCell",
      "outputs": [],
      "stateMutability": "nonpayable",
      "type": "function"
    },
    {
      "inputs": [
        {
          "internalType": "address",
          "name": "recipient",
          "type": "address"
        },
        {
          "internalType": "uint32",
          "name": "rdist",
          "type": "uint32"
        },
        {
          "internalType": "address",
          "name": "newTreeVote",
          "type": "address"
        }
      ],
      "name": "sortRecDagVoteColumn",
      "outputs": [],
      "stateMutability": "nonpayable",
      "type": "function"
    },
    {
      "inputs": [
        {
          "internalType": "address",
          "name": "recipient",
          "type": "address"
        },
        {
          "internalType": "address",
          "name": "replaced",
          "type": "address"
        }
      ],
      "name": "sortRecDagVoteColumnDescendants",
      "outputs": [],
      "stateMutability": "nonpayable",
      "type": "function"
    },
    {
      "inputs": [
        {
          "internalType": "address",
          "name": "voter",
          "type": "address"
        },
        {
          "internalType": "uint32",
          "name": "sdist",
          "type": "uint32"
        },
        {
          "internalType": "address",
          "name": "newTreeVote",
          "type": "address"
        }
      ],
      "name": "sortSentDagVoteColumn",
      "outputs": [],
      "stateMutability": "nonpayable",
      "type": "function"
    },
    {
      "inputs": [
        {
          "internalType": "address",
          "name": "voter",
          "type": "address"
        }
      ],
      "name": "switchPositionWithParent",
      "outputs": [],
      "stateMutability": "nonpayable",
      "type": "function"
    },
    {
      "inputs": [
        {
          "internalType": "address",
          "name": "voter",
          "type": "address"
        }
      ],
      "name": "switchTreeVoteWithParent",
      "outputs": [],
      "stateMutability": "nonpayable",
      "type": "function"
    },
    {
      "inputs": [
        {
          "internalType": "address",
          "name": "recipient",
          "type": "address"
        },
        {
          "internalType": "uint32",
          "name": "rdist",
          "type": "uint32"
        },
        {
          "internalType": "uint32",
          "name": "depth",
          "type": "uint32"
        },
        {
          "internalType": "uint32",
          "name": "rPos",
          "type": "uint32"
        }
      ],
      "name": "unsafeReplaceRecDagVoteAtDistDepthPosWithLast",
      "outputs": [],
      "stateMutability": "nonpayable",
      "type": "function"
    }
  ],
  "bytecode": {
    "object": "0x6080806040523461002d57600080546001600160401b031916640600000012179055613d8290816100338239f35b600080fdfe60a080604052600436101561001357600080fd5b600060805260003560e01c908162a1efe51461329a575080630520b5a4146131fa57806305279858146131b75780631008d1931461313057806310839bf71461308e578063199cd8c014612e3757806326a049e814612da4578063270e32cd14612d3557806327c06fd514612d0a5780632e4ba76014612cc057806333df4a3514612c4957806337ba0eb114612b2f57806339273f5914612ab65780633aaf189b14612a0b5780633d325c361461299c578063429ccb051461295f57806345ca25ed146127b657806349bb27e01461273d578063506ce800146126d357806350ab663114612646578063519bf72d146125cd57806359bf02a5146125205780636961d524146124c75780636be22cd2146123095780637199f96b146122b657806371b5b1991461222c57806376a0ac6a146121d35780637cb7ed44146121515780637fb2ed2a14612093578063806df95914611f57578063825a385514611f26578063a16877d514611e90578063a3a8848314611dfd578063a571dcd714611d67578063a5c1399814611ce0578063ab70b4c614611c67578063b062aaec14611bc6578063b529ef4c14611b3d578063b740587e14611ae9578063b9aae95d14611a18578063c0a6033c14611942578063c5ce03181461119c578063c9aa10cf146110e1578063c9f05d0914611058578063cb81975514610fd1578063cfaced4c14610ed9578063d443c43114610e3f578063d5a6436114610d90578063dceb5b7914610c34578063dd88aa9514610b67578063e1d9c36414610a96578063e614a68d146109f8578063ebc9bd621461092f578063eeaebe871461049a578063f358f6831461040d5763ff8f07de1461028b57600080fd5b346103dd5760203660031901126103dd576102a461330f565b600080516020613d2d83398151915260606040516040815260805160408201526080516020820152a173__$49ce59d1ddda15b782622b110191f6a6ba$__803b156103dd5760405163039c39a160e01b81526080805160048301526001600160a01b0390931660248201819052925181604481855af480156103d0576103f8575b50803b156103dd57604051633c53f05560e21b8152608080516004830152602482018490525181604481855af480156103d0576103e3575b50803b156103dd5760405190632cc8ea6f60e01b8252608051600483015282602483015281604481608051935af480156103d0576103ba575b50608051526002602052608051604081206001600160601b0360a01b815416905580f35b6103c390613640565b6080518015610396575b80fd5b6040513d608051823e3d90fd5b60805180fd5b6103ec90613640565b608051801561035d5780fd5b61040190613640565b60805180156103255780fd5b346103dd5760203660031901126103dd5761042661330f565b73__$49ce59d1ddda15b782622b110191f6a6ba$__803b156103dd57604051632cc8ea6f60e01b81526080805160048301526001600160a01b039093166024820152915190829060449082905af480156103d057610485575b60805180f35b61048e90613640565b608051801561047f5780fd5b346103dd5760603660031901126103dd576104b361330f565b67ffffffffffffffff906024358281116103dd576104d59036906004016133e9565b926104de61333b565b93600080516020613d2d83398151915260606040516040815260805160408201526080516020820152a160018060a01b039283851660805152600260205261052e8460406080512054161561360e565b83861660805152600260205261054d846040608051205416151561360e565b838616608051526003602052610571600263ffffffff60406080512054161061360e565b838516608051526002602052608051604081208588166001600160601b0360a01b82541617905560016020526040812093831161091857508254608051600182811c9216801561090e575b60208310146108f757509081601f8493116108a3575b5060805190601f831160011461083a576080519261082f575b50508160011b916000199060031b1c19161790555b8083166080515260046020526080516040812090600360205263ffffffff6040822054169052602052608051604081208284166001600160601b0360a01b8254161790558184169052600360205261066363ffffffff604060805120541661362b565b8184166080515260036020526080516040812063ffffffff8019931683825416179055828416905260056020526080516040808220916103e892838582541617905560066020528181208385825416179055600a6020528181208385825416179055600b6020522091825416179055600080516020613d2d8339815191526060604051604081526000604082015260006020820152a1604051637e168e6360e11b815260006004820152818316602482015283821660448201526101009273__$49ce59d1ddda15b782622b110191f6a6ba$__8483606481845af49283156107d5576000906000906000976000966107ef575b50509061076991816107e6575b5061360e565b803b156107e15763ffffffff60c49381600097876040519a8b998a98639037412f60e01b8a528c60048b0152166024890152166044870152166064850152166084830152600160a48301525af480156107d5576107c65760805180f35b6107cf90613640565b8061047f565b6040513d6000823e3d90fd5b600080fd5b90501588610763565b915091506108189296506107699450803d10610828575b610810818361366a565b810190613716565b5091979095909392915089610756565b503d610806565b0135905086806105eb565b84825260805160208120909450915b601f198416851061088b576001945083601f19811610610871575b505050811b019055610600565b0135600019600384901b60f8161c19169055868080610864565b81810135835560209485019460019093019201610849565b909150836080515260805160208120601f850160051c8101602086106108f0575b9085949392915b601f840160051c820181106108e2575050506105d2565b8281558695506001016108cb565b50806108c4565b634e487b7160e01b90526022600452608051602490fd5b91607f16916105bc565b634e487b7160e01b90526041600452608051602490fd5b346103dd5760403660031901126103dd5761094861330f565b6109506133b0565b60405163c78fff5b60e01b815260805160048201526001600160a01b03928316602482015263ffffffff90911660448201529060208260648173__$49ce59d1ddda15b782622b110191f6a6ba$__5af49081156103d057608051916109bd575b6020925060405191168152f35b90506020823d82116109f0575b816109d76020938361366a565b810103126103dd576109ea6020926136aa565b906109b0565b3d91506109ca565b346103dd57608051806003193601126103cd57604051638c001bb760e01b8152608051600482015260208160248173__$49ce59d1ddda15b782622b110191f6a6ba$__5af480156103d05760805190610a5d575b60209063ffffffff60405191168152f35b506020813d8211610a8e575b81610a766020938361366a565b810103126103dd57610a89602091613699565b610a4c565b3d9150610a69565b346103dd5760c03660031901126103dd57610aaf61330f565b610ab76133b0565b610abf6133c3565b6001600160a01b039190606435838116908190036107e157610adf6133d6565b9060a4359363ffffffff938486168096036107e15773__$49ce59d1ddda15b782622b110191f6a6ba$__96873b156103dd57859283916040519a6310cbc75560e21b8c5260805160048d01521660248b015216604489015216606487015260848601521660a484015260c48301528160e481608051935af480156103d0576104855760805180f35b346103dd5760403660031901126103dd57610b8061330f565b610b88613325565b60408051637485fa6b60e01b815260805160048201526001600160a01b0393841660248201529290911660448301528160648173__$49ce59d1ddda15b782622b110191f6a6ba$__5af49081156103d057608051908192610c02575b5060408051911515825263ffffffff929092166020820152f35b0390f35b9050610c26915060403d604011610c2d575b610c1e818361366a565b810190613c89565b9082610be4565b503d610c14565b346103dd5760603660031901126103dd57610c4d61330f565b610c55613325565b90610c5e6133c3565b91600080516020613d2d8339815191526060604051604081526000604082015260006020820152a1604051637e168e6360e11b8152600060048201526001600160a01b0392831660248201819052919092166044830181905261010093909173__$49ce59d1ddda15b782622b110191f6a6ba$__8585606481845af49485156107d557600090600090600098600098610d60575b505090610d0491816107e6575061360e565b803b156107e15760009460c4936040519788968795639037412f60e01b87528960048801526024870152604486015263ffffffff928380921660648701521660848501521660a48301525af480156107d5576107c65760805180f35b91509150610d80929750610d049650803d1061082857610810818361366a565b5091989097909392915089610cf2565b346103dd576020806003193601126103dd57610daa61330f565b60405163cc0a57c960e01b815260805160048201526001600160a01b039091166024820152818160448173__$49ce59d1ddda15b782622b110191f6a6ba$__5af49081156103d05760805191610e0a575b5063ffffffff60405191168152f35b90508181813d8311610e38575b610e21818361366a565b810103126103dd57610e3290613699565b82610dfb565b503d610e17565b346103dd57610e4d3661358e565b9392909173__$49ce59d1ddda15b782622b110191f6a6ba$__91823b156103dd5760405163241d9d2160e21b8152608051600060048301526001600160a01b039687166024830152918616604482015291909416606482015263ffffffff92831660848201529390911660a48401528290818060c481015b03915af480156103d0576104855760805180f35b346103dd5760603660031901126103dd57610ef261330f565b60a0610efc6133b0565b610f046133c3565b92610f0d613c59565b50610f2c60405194859384936330e995ed60e21b85526004850161386e565b038173__$49ce59d1ddda15b782622b110191f6a6ba$__5af480156103d0576080519081928291610f9b575b5060408051921515835263ffffffff93841660208085019190915282516001600160a01b031684830152820151841660608401520151909116608082015260a090f35b9050610bfe9250610fc3915060a03d8111610fca575b610fbb818361366a565b810190613ca3565b9092610f58565b503d610fb1565b346103dd5760403660031901126103dd57610fea61330f565b610ff26133b0565b73__$49ce59d1ddda15b782622b110191f6a6ba$__90813b156103dd5763ffffffff90604051936340d420a960e01b8552608051600486015260018060a01b0316602485015216604483015281606481608051935af480156103d0576104855760805180f35b346103dd5760403660031901126103dd5761107161330f565b611079613325565b9073__$49ce59d1ddda15b782622b110191f6a6ba$__90813b156103dd57604051635bb7eaf960e11b81526080805160048301526001600160a01b0392831660248301529190931660448401525190829060649082905af480156103d0576104855760805180f35b346103dd5760a03660031901126103dd576110fa61330f565b6111026133b0565b61110a6133c3565b906064359063ffffffff918281168091036107e1576111276133d6565b9173__$49ce59d1ddda15b782622b110191f6a6ba$__94853b156103dd5784809260405198630387fa9760e41b8a5260805160048b015260018060a01b031660248a015216604488015216606486015260848501521660a48301528160c481608051935af480156103d0576104855760805180f35b346103dd5760403660031901126103dd576111b561330f565b6111bd613325565b600080516020613d2d83398151915260606040516040815260805160408201526080516020820152a1608080516001600160a01b038481169091526002602052905160409020546112109116151561360e565b608080516001600160a01b0383811690915260026020529051604090205461123a9116151561360e565b60018060a01b038116608051526003602052611264600263ffffffff60406080512054161061360e565b60408051624c9bfd60e11b815260805160048201526001600160a01b0384166024820152908160448173__$49ce59d1ddda15b782622b110191f6a6ba$__5af49081156103d05760805191611912575b5060405163873823fb60e01b815260805160048201526001600160a01b038381166024830152841660448201529060608260648173__$49ce59d1ddda15b782622b110191f6a6ba$__5af480156103d05760805190819382916118eb575b50809361131f8282613844565b60405163873823fb60e01b815260805160048201526001600160a01b038981166024830152881660448201529094909260608460648173__$49ce59d1ddda15b782622b110191f6a6ba$__5af49485156103d05760805190819582976118c2575b5060405163873823fb60e01b815260805160048201526001600160a01b038b81166024830152909416604485015260608460648173__$49ce59d1ddda15b782622b110191f6a6ba$__5af49283156103d0576080519384958591611888575b506113f69063ffffffff6080515460201c16613844565b9563ffffffff808816818816011161187257608080516001600160a01b038f81169091526002602052905160408120549091169073__$49ce59d1ddda15b782622b110191f6a6ba$__3b156103cd57508d60405190632cc8ea6f60e01b8252608051600483015260018060a01b031660248201526080518160448173__$49ce59d1ddda15b782622b110191f6a6ba$__5af480156103d05761185d575b5063ffffffff8b161580611856575b61178c575b5050506000146115a75750505050505073__$49ce59d1ddda15b782622b110191f6a6ba$__3b156103dd576114f691604051809381926326da1a9d60e11b835260805194878960048601613c1c565b038173__$49ce59d1ddda15b782622b110191f6a6ba$__5af480156103d057611592575b505b73__$49ce59d1ddda15b782622b110191f6a6ba$__3b156103dd57604051632ce48cf360e21b81526080805160048301526001600160a01b039384166024830152919092166044830152518160648173__$49ce59d1ddda15b782622b110191f6a6ba$__5af480156103d0576104855760805180f35b61159b90613640565b608051801561151a5780fd5b91939550919395506000146116375750505073__$49ce59d1ddda15b782622b110191f6a6ba$__3b156103dd576115f8916040518093819263241d9d2160e21b835260805194878960048601613c1c565b038173__$49ce59d1ddda15b782622b110191f6a6ba$__5af480156103d057611622575b5061151c565b61162b90613640565b608051801561161c5780fd5b91935091508061177c575b156116915773__$49ce59d1ddda15b782622b110191f6a6ba$__3b156103dd576115f8916040518093819263241d9d2160e21b83526080519463ffffffff808316911601878960048601613c1c565b505073__$49ce59d1ddda15b782622b110191f6a6ba$__3b156103dd5760405163039c39a160e01b81526080805160048301526001600160a01b0384166024830152518160448173__$49ce59d1ddda15b782622b110191f6a6ba$__5af480156103d057611767575b5073__$49ce59d1ddda15b782622b110191f6a6ba$__3b156103dd57604051633c53f05560e21b81526080805160048301526001600160a01b0384166024830152518160448173__$49ce59d1ddda15b782622b110191f6a6ba$__5af480156103d057611622575061151c565b61177090613640565b60805180156116fa5780fd5b50600163ffffffff831611611642565b604051631eab285960e21b815260805160048201526001600160a01b038e16602482015263ffffffff8416604482015260208160648173__$49ce59d1ddda15b782622b110191f6a6ba$__5af49081156103d0576080519161181c575b506001600160a01b0316146117ff575b806114a7565b611814929a5061180e9061382e565b5061382e565b978b806117f9565b90506020813d60201161184e575b816118376020938361366a565b810103126103dd57611848906136aa565b8f6117e9565b3d915061182a565b50836114a2565b61186690613640565b60805180156114935780fd5b634e487b7160e01b600052601160045260246000fd5b90506118b29195506113f6945060603d6060116118bb575b6118aa818361366a565b810190613bf6565b909591946113df565b503d6118a0565b915095506118e091945060603d6060116118bb576118aa818361366a565b94919094958b611380565b91505061190891925060603d6060116118bb576118aa818361366a565b9291909286611312565b611934915060403d60401161193b575b61192c818361366a565b810190613bd5565b50836112b4565b503d611922565b346103dd5761197f6060611955366134ac565b611963959195939293613c59565b506040516306a6c17960e41b815295869485946004860161377c565b038173__$49ce59d1ddda15b782622b110191f6a6ba$__5af480156103d057608051906119de575b6060906119dc604051809260409060018060a01b0381511683528163ffffffff91826020820151166020860152015116910152565bf35b5060603d8111611a11575b6119f3818361366a565b8101906060818303126103dd57606091611a0c916136be565b6119a7565b503d6119e9565b346103dd5760403660031901126103dd57611a3161330f565b611a39613325565b90611a42613c59565b5060405163b7f9a17960e01b815260805160048201526001600160a01b0391821660248201529116604482015261010090818160648173__$49ce59d1ddda15b782622b110191f6a6ba$__5af480156103d05760805190819282839084928594611ab9575b5060405196508695610bfe9587613351565b945050505050611ada915082610bfe93903d1061082857610810818361366a565b93958695949391929190611aa7565b346103dd57611af7366134ac565b9092919273__$49ce59d1ddda15b782622b110191f6a6ba$__90813b156103dd57610ec59460405195869485938493630ed8ebe360e21b8552608051986004860161377c565b346103dd5760403660031901126103dd57611b5661330f565b611b5e613325565b9073__$49ce59d1ddda15b782622b110191f6a6ba$__90813b156103dd576040516306a299cf60e21b81526080805160048301526001600160a01b0392831660248301529190931660448401525190829060649082905af480156103d0576104855760805180f35b346103dd576020806003193601126103dd57611be061330f565b6040516302fd7b8d60e21b815260805160048201526001600160a01b039091166024820152818160448173__$49ce59d1ddda15b782622b110191f6a6ba$__5af49081156103d05760805191611c3a575b50604051908152f35b90508181813d8311611c60575b611c51818361366a565b810103126103dd575182611c31565b503d611c47565b346103dd576020806003193601126103dd57611c8161330f565b604051638cea4c9b60e01b815260805160048201526001600160a01b039091166024820152818160448173__$49ce59d1ddda15b782622b110191f6a6ba$__5af49081156103d05760805191610e0a575063ffffffff60405191168152f35b346103dd5760403660031901126103dd57611cf961330f565b611d016133b0565b73__$49ce59d1ddda15b782622b110191f6a6ba$__90813b156103dd5763ffffffff906040519363714fc7e360e01b8552608051600486015260018060a01b0316602485015216604483015281606481608051935af480156103d0576104855760805180f35b346103dd5760403660031901126103dd57611d8061330f565b611d88613325565b6040805163eb826b3d60e01b815260805160048201526001600160a01b0393841660248201529290911660448301528160648173__$49ce59d1ddda15b782622b110191f6a6ba$__5af49081156103d057608051908192610c02575060408051911515825263ffffffff929092166020820152f35b346103dd5760603660031901126103dd57611e1661330f565b611e1e6133b0565b90611e2761333b565b73__$49ce59d1ddda15b782622b110191f6a6ba$__803b156103dd5760405163fb4f1b0960e01b8152608051600060048301526001600160a01b03948516602483015263ffffffff90951660448201529290911660648301529091908290818060848101610ec5565b346103dd5760403660031901126103dd57611ea961330f565b611eb1613325565b6040805163d934a2b160e01b815260805160048201526001600160a01b0393841660248201529290911660448301528160648173__$49ce59d1ddda15b782622b110191f6a6ba$__5af49081156103d057608051908192610c02575060408051911515825263ffffffff929092166020820152f35b346103dd5760203660031901126103dd576020611f49611f4461330f565b6137b3565b63ffffffff60405191168152f35b346103dd576020806003193601126103dd57611f7161330f565b6040516315611cab60e21b81526080805160048301526001600160a01b03909216602482015290518160448173__$49ce59d1ddda15b782622b110191f6a6ba$__5af49081156103d05760805191611ff5575b611fe76040848482519382859384528251928184809387015286860191016135eb565b601f01601f19168101030190f35b903d8091833e612005818361366a565b81019180828403126103dd57815167ffffffffffffffff928382116103dd57019280601f850112156103dd57835192831161207b5760405190612051601f8501601f191684018361366a565b8382528284860101116103dd57612073604093611fe7958480850191016135eb565b915091611fc4565b634e487b7160e01b6080515260416004526024608051fd5b346103dd5760403660031901126103dd576120ac61330f565b6120b4613325565b60405163873823fb60e01b815260805160048201526001600160a01b0392831660248201529116604482015260608160648173__$49ce59d1ddda15b782622b110191f6a6ba$__5af480156103d0576060916080519182918391612131575b50604051921515835263ffffffff8092166020840152166040820152f35b91505061214b9150823d81116118bb576118aa818361366a565b84612113565b346103dd5760603660031901126103dd5761216a61330f565b60206121746133b0565b61217c6133c3565b9261219b60405194859384936351dc622d60e11b85526004850161386e565b038173__$49ce59d1ddda15b782622b110191f6a6ba$__5af480156103d05760805190610a5d5760209063ffffffff60405191168152f35b346103dd576121e1366134fa565b90979692919495939773__$49ce59d1ddda15b782622b110191f6a6ba$__95863b156103dd57610ec5936040519a8b998a988998630ba8c3c360e41b8a526080519d60048b01613cca565b346103dd5761223a3661358e565b9392909173__$49ce59d1ddda15b782622b110191f6a6ba$__91823b156103dd576040516326da1a9d60e11b8152608051600060048301526001600160a01b039687166024830152918616604482015291909416606482015263ffffffff92831660848201529390911660a48401528290818060c48101610ec5565b346103dd5760603660031901126103dd576122cf61330f565b60a06122d96133b0565b6122e16133c3565b926122ea613c59565b50610f2c6040519485938493632c159e2b60e11b85526004850161386e565b346103dd5760203660031901126103dd5761232261330f565b600080516020613d2d8339815191526060604051604081526000604082015260006020820152a16001600160a01b03818116600090815260026020526040902054811661237081151561360e565b61237d600182141561360e565b6001600160a01b0381166000908152600260205260409020548216906123b46123a585613904565b6123ae83613904565b1061360e565b73__$49ce59d1ddda15b782622b110191f6a6ba$__92833b156103dd57604051946326da1a9d60e11b865260006004870152826024870152826044870152169384606482015260006084820152600060a48201526080518160c481875af480156107d5576124b8575b50823b156103dd576040519163241d9d2160e21b8352600060048401528460248401526044830152606482015260026084820152600260a48201526080518160c481855af480156107d5576124a9575b50803b156103dd57604051916302995b5b60e51b835260006004840152602483015281604481608051935af480156107d5576107c65760805180f35b6124b290613640565b8261246d565b6124c190613640565b8461241d565b346103dd576124d5366134fa565b90979692919495939773__$49ce59d1ddda15b782622b110191f6a6ba$__95863b156103dd57610ec5936040519a8b998a988998635ebc0b4360e11b8a526080519d60048b01613cca565b346103dd576020806003193601126103dd5761253a61330f565b604051632184acd960e01b815260805160048201526001600160a01b03918216602482015290828260448173__$49ce59d1ddda15b782622b110191f6a6ba$__5af49182156103d05760805192612596575b5060405191168152f35b9091508281813d83116125c6575b6125ae818361366a565b810103126103dd576125bf906136aa565b908361258c565b503d6125a4565b346103dd576020806003193601126103dd576125e761330f565b60405163276dcfeb60e11b815260805160048201526001600160a01b039091166024820152818160448173__$49ce59d1ddda15b782622b110191f6a6ba$__5af49081156103d05760805191610e0a575063ffffffff60405191168152f35b346103dd5760403660031901126103dd5761265f61330f565b6126676133b0565b604051631eab285960e21b815260805160048201526001600160a01b03928316602482015263ffffffff90911660448201529060208260648173__$49ce59d1ddda15b782622b110191f6a6ba$__5af49081156103d057608051916109bd576020925060405191168152f35b346103dd5760603660031901126103dd576126ec61330f565b6126f46133b0565b906126fd6133c3565b73__$49ce59d1ddda15b782622b110191f6a6ba$__803b156103dd57610ec59360405180958194829363a4453ec560e01b8452608051976004850161386e565b346103dd576020806003193601126103dd5761275761330f565b60405163187d2b1360e31b815260805160048201526001600160a01b039091166024820152818160448173__$49ce59d1ddda15b782622b110191f6a6ba$__5af49081156103d05760805191610e0a575063ffffffff60405191168152f35b346103dd576127c436613417565b60409291925191604083526080516040840152600080516020613d2d83398151915260606080519460209586820152a161281a60018060a01b03809216918260805152600285526040608051205416151561360e565b6080515260019182815260805193604085209467ffffffffffffffff8411610918575084546080518582811c92168015612955575b848310146108f75750601f8111612909575b5060805191601f84116001146128a3575092829391839260805194612898575b50501b916000199060031b1c191617905560805180f35b013592508580612881565b85835260805181812093918591601f198316915b888383106128ef57505050106128d5575b505050811b01905561047f565b0135600019600384901b60f8161c191690558380806128c8565b8686013588559096019593840193879350908101906128b7565b8560805152608051838120601f860160051c81019285871061294b575b601f0160051c019186905b83811061294057505050612861565b828155018690612931565b9092508290612926565b91607f169161284f565b346103dd5761197f6060612972366134ac565b612980959195939293613c59565b5060405163d6e2ac4f60e01b815295869485946004860161377c565b346103dd57610f2c60a06129af3661345b565b6129bd959195939293613c59565b5060405163464b46fd60e11b8152600060048201526001600160a01b03938416602482015293909216604484015263ffffffff948516606484015293166084820152918290819060a4820190565b346103dd5760203660031901126103dd57612a2461330f565b60408051624c9bfd60e11b815260805160048201526001600160a01b03928316602482015291908260448173__$49ce59d1ddda15b782622b110191f6a6ba$__5af49182156103d057604092608051918291612a91575b5063ffffffff9192845193168352166020820152f35b63ffffffff9250612aaf9150843d861161193b5761192c818361366a565b9091612a7b565b346103dd576020806003193601126103dd57612ad061330f565b604051634a7fd3db60e01b815260805160048201526001600160a01b039091166024820152818160448173__$49ce59d1ddda15b782622b110191f6a6ba$__5af49081156103d05760805191610e0a575063ffffffff60405191168152f35b346103dd5760403660031901126103dd57612b4861330f565b612b50613325565b90600080516020613d2d83398151915260606040516040815260805160408201526080516020820152a1604051637e168e6360e11b815260805160048201526001600160a01b038281166024830152909216604483015261010073__$49ce59d1ddda15b782622b110191f6a6ba$__8184606481845af49182156103d057608051809581928295612c18575b50506001612bec9115151461360e565b813b156103dd57610ec59460405195869485938493635467b2b360e01b8552608051986004860161377c565b612bec975060019550612c3b935080919250903d1061082857610810818361366a565b509197919590935090612bdc565b346103dd5760203660031901126103dd57612c6261330f565b73__$49ce59d1ddda15b782622b110191f6a6ba$__803b156103dd576040516302995b5b60e51b81526080805160048301526001600160a01b039093166024820152915190829060449082905af480156103d0576104855760805180f35b346103dd5760603660031901126103dd57612cd961330f565b6020612ce36133b0565b612ceb6133c3565b9261219b604051948593849363331adc3560e11b85526004850161386e565b346103dd5760203660031901126103dd576020612d2d612d2861330f565b613904565b604051908152f35b346103dd57610f2c60a0612d483661345b565b612d56959195939293613c59565b50604051632151e2c960e21b8152600060048201526001600160a01b03938416602482015293909216604484015263ffffffff948516606484015293166084820152918290819060a4820190565b346103dd5760603660031901126103dd57612dbd61330f565b612dc56133b0565b90612dce61333b565b73__$49ce59d1ddda15b782622b110191f6a6ba$__803b156103dd5760405163ae1308e760e01b8152608051600060048301526001600160a01b03948516602483015263ffffffff90951660448201529290911660648301529091908290818060848101610ec5565b346103dd57612e4536613417565b909160405191604083526080516040840152600193600080516020613d2d83398151915260606020958787820152a160018060a01b0391612eac83851693846080515260028752612e9e8160406080512054161561360e565b6080515460401c161561360e565b826080515285855260805191604083209267ffffffffffffffff8311610918575082546080518882811c92168015613084575b888310146108f757509081601f84931161302d575b5060805190601f8311600114612fca5760805192612fbf575b5050600019600383901b1c191690861b1790555b60805152600282526080519260408420906001600160601b0360a01b82541617905582549068010000000000000000600160e01b039060401b169067ffffffffffffffff63ffffffff60e01b0116178255600581526040822090600b6103e89163ffffffff1993838582541617905560068152604085208385825416179055600a815260408520838582541617905552604083209182541617905580f35b013590508780612f0d565b8482526080518881208a95509290601f198516905b8a8282106130175750508411612ffd575b505050811b019055612f21565b0135600019600384901b60f8161c19169055878080612ff0565b8385013586558c97909501949283019201612fdf565b9091508360805152608051878120601f850160051c81019289861061307a575b8594939291601f8c920160051c01925b83811061306c57505050612ef4565b8281558695508b910161305d565b909250829061304d565b91607f1691612edf565b346103dd57608051806003193601126103cd57604051631dd94a4360e21b8152608051600482015260208160248173__$49ce59d1ddda15b782622b110191f6a6ba$__5af480156103d057608051906130f7575b6040516001600160a01b039091168152602090f35b506020813d8211613128575b816131106020938361366a565b810103126103dd576131236020916136aa565b6130e2565b3d9150613103565b346103dd5760403660031901126103dd5761314961330f565b6131516133b0565b73__$49ce59d1ddda15b782622b110191f6a6ba$__90813b156103dd5763ffffffff906040519363d33fbcad60e01b8552608051600486015260018060a01b0316602485015216604483015281606481608051935af480156103d0576107c65760805180f35b346103dd57608051806003193601126103cd57546040805163ffffffff8084168252602084811c9091169082015291811c6001600160a01b031690820152606090f35b346103dd5760403660031901126103dd5761321361330f565b61321b613325565b90613224613c59565b50604051637e168e6360e11b815260805160048201526001600160a01b0391821660248201529116604482015261010090818160648173__$49ce59d1ddda15b782622b110191f6a6ba$__5af480156103d05760805190819282839084928594611ab9575060405196508695610bfe9587613351565b346107e157602090816003193601126107e1576132b561330f565b63d6bb8c2d60e01b825260805160048301526001600160a01b03166024820152818160448173__$49ce59d1ddda15b782622b110191f6a6ba$__5af49081156103d05760805191610e0a575063ffffffff60405191168152f35b600435906001600160a01b03821682036107e157565b602435906001600160a01b03821682036107e157565b604435906001600160a01b03821682036107e157565b901515815290151560208083019190915263ffffffff9283166040808401919091529383166060830152938216608082015284516001600160a01b031660a082015292840151811660c084015292015190911660e08201526101000190565b6024359063ffffffff821682036107e157565b6044359063ffffffff821682036107e157565b6084359063ffffffff821682036107e157565b9181601f840112156107e15782359167ffffffffffffffff83116107e157602083818601950101116107e157565b9060406003198301126107e1576004356001600160a01b03811681036107e157916024359067ffffffffffffffff82116107e157613457916004016133e9565b9091565b60809060031901126107e1576001600160a01b039060043582811681036107e1579160243590811681036107e1579063ffffffff9060443582811681036107e1579160643590811681036107e15790565b60809060031901126107e1576004356001600160a01b03811681036107e1579063ffffffff60243581811681036107e1579160443582811681036107e1579160643590811681036107e15790565b6101209060031901126107e1576001600160a01b039060043582811681036107e1579163ffffffff9160243583811681036107e1579260443581811681036107e1579260643582811681036107e1579260843583811681036107e1579260a43581811681036107e1579260c43590811681036107e1579160e43582811681036107e157916101043590811681036107e15790565b60a09060031901126107e1576001600160a01b0360043581811681036107e1579160243582811681036107e1579160443590811681036107e1579063ffffffff9060643582811681036107e1579160843590811681036107e15790565b60005b8381106135fe5750506000910152565b81810151838201526020016135ee565b1561361557565b634e487b7160e01b600052600160045260246000fd5b90600163ffffffff8093160191821161187257565b67ffffffffffffffff811161365457604052565b634e487b7160e01b600052604160045260246000fd5b90601f8019910116810190811067ffffffffffffffff82111761365457604052565b519081151582036107e157565b519063ffffffff821682036107e157565b51906001600160a01b03821682036107e157565b91908260609103126107e1576040516060810181811067ffffffffffffffff8211176136545760405260406137118183956136f8816136aa565b855261370660208201613699565b602086015201613699565b910152565b9091610100828403126107e15761372c8261368c565b926137396020840161368c565b9261374660408201613699565b9261376c61375660608401613699565b9360a061376560808601613699565b94016136be565b90565b506040513d6000823e3d90fd5b600081526001600160a01b03909116602082015263ffffffff91821660408201529181166060830152909116608082015260a00190565b6001600160a01b03818116600090815260026020526040902054811615613812576001816040600020541614613812576138026138099260018060a01b03166000526002602052604060002090565b54166137b3565b61376c9061362b565b5050600090565b63ffffffff8091169081146118725760010190565b63ffffffff908116600019019190821161187257565b63ffffffff918216908216039190821161187257565b908160209103126107e15761376c90613699565b600081526001600160a01b03909116602082015263ffffffff91821660408201529116606082015260800190565b906060828203126107e15761376c916136be565b8181029291811591840414171561187257565b81156138cd570490565b634e487b7160e01b600052601260045260246000fd5b9190820180921161187257565b63ffffffff16604d811161187257600a0a90565b906000906001600160a01b03831615613bd0578173__$49ce59d1ddda15b782622b110191f6a6ba$__5b6000546139489060201c63ffffffff165b63ffffffff1690565b9263ffffffff938486161015613b8d579085916001905b61397e61393f8861397960005463ffffffff9060201c1690565b613844565b86831611613b79576000945b604080516351dc622d60e11b815260006004808301919091526001600160a01b038816602483015263ffffffff8b81166044840152861660648301526020939290918b91908b9086816084818d5af4908115613b6c575b600091613b3f575b50168b8b161015613b2957516306a6c17960e41b815260009281019283526001600160a01b038916602084015263ffffffff9182166040840152818716606084810191909152918a1660808401529093929184908290819060a00103818a5af4938415613b1c575b600094613aed575b50508251613a6f906001600160a01b0316613904565b613ae793613ad561393f613acb613ab1613aa3613ae198613a9d61393f613adb999289015163ffffffff1690565b906138b0565b94516001600160a01b031690565b6001600160a01b0316600090815260096020526040902090565b5463ffffffff1690565b906138c3565b906138e3565b95613819565b9461398a565b613b0d929450803d10613b15575b613b05818361366a565b81019061389c565b913880613a59565b503d613afb565b613b2461376f565b613a51565b50505095505090613b3990613819565b9061395f565b613b5f9150873d8911613b65575b613b57818361366a565b81019061385a565b386139e9565b503d613b4d565b613b7461376f565b6139e1565b94505093613b879150613819565b9261392e565b94925050613bcc9250613bb190613adb613bac60005463ffffffff1690565b6138f0565b91829160018060a01b0316600052600e602052604060002090565b5590565b915090565b91908260409103126107e15761376c6020613bef846136aa565b9301613699565b908160609103126107e157613c0a8161368c565b9161376c6040613bef60208501613699565b60008082526001600160a01b039283166020830152919092166040830152606082015263ffffffff9182166080820152911660a082015260c00190565b604051906060820182811067ffffffffffffffff8211176136545760405260006040838281528260208201520152565b91908260409103126107e15761376c6020613bef8461368c565b909160a0828403126107e15761376c613cbb8361368c565b93604061376560208601613699565b600081526001600160a01b03918216602082015263ffffffff92831660408201529282166060840152928116608083015292831660a082015292821660c084015290921660e0820152918116610100830152909116610120820152610140019056fe1fbe8156cf474a4c0655ec4c8974520601db142702d1591fde9b9df5cbae5174a264697066735822122034a73a6505fe771d9e39800538a625cd503995138108386193ad22312e442cca64736f6c63430008110033",
    "linkReferences": {
      "src/Anthill.sol": {
        "AnthillInner": [
          {
            "start": 770,
            "length": 20
          },
          {
            "start": 1115,
            "length": 20
          },
          {
            "start": 1878,
            "length": 20
          },
          {
            "start": 2494,
            "length": 20
          },
          {
            "start": 2651,
            "length": 20
          },
          {
            "start": 2857,
            "length": 20
          },
          {
            "start": 3056,
            "length": 20
          },
          {
            "start": 3314,
            "length": 20
          },
          {
            "start": 3593,
            "length": 20
          },
          {
            "start": 3718,
            "length": 20
          },
          {
            "start": 3939,
            "length": 20
          },
          {
            "start": 4135,
            "length": 20
          },
          {
            "start": 4271,
            "length": 20
          },
          {
            "start": 4445,
            "length": 20
          },
          {
            "start": 4802,
            "length": 20
          },
          {
            "start": 4893,
            "length": 20
          },
          {
            "start": 5002,
            "length": 20
          },
          {
            "start": 5097,
            "length": 20
          },
          {
            "start": 5215,
            "length": 20
          },
          {
            "start": 5286,
            "length": 20
          },
          {
            "start": 5356,
            "length": 20
          },
          {
            "start": 5421,
            "length": 20
          },
          {
            "start": 5457,
            "length": 20
          },
          {
            "start": 5536,
            "length": 20
          },
          {
            "start": 5614,
            "length": 20
          },
          {
            "start": 5679,
            "length": 20
          },
          {
            "start": 5756,
            "length": 20
          },
          {
            "start": 5832,
            "length": 20
          },
          {
            "start": 5901,
            "length": 20
          },
          {
            "start": 5936,
            "length": 20
          },
          {
            "start": 6005,
            "length": 20
          },
          {
            "start": 6135,
            "length": 20
          },
          {
            "start": 6582,
            "length": 20
          },
          {
            "start": 6829,
            "length": 20
          },
          {
            "start": 6960,
            "length": 20
          },
          {
            "start": 7060,
            "length": 20
          },
          {
            "start": 7231,
            "length": 20
          },
          {
            "start": 7392,
            "length": 20
          },
          {
            "start": 7478,
            "length": 20
          },
          {
            "start": 7664,
            "length": 20
          },
          {
            "start": 7772,
            "length": 20
          },
          {
            "start": 7961,
            "length": 20
          },
          {
            "start": 8146,
            "length": 20
          },
          {
            "start": 8475,
            "length": 20
          },
          {
            "start": 8658,
            "length": 20
          },
          {
            "start": 8735,
            "length": 20
          },
          {
            "start": 8819,
            "length": 20
          },
          {
            "start": 9193,
            "length": 20
          },
          {
            "start": 9491,
            "length": 20
          },
          {
            "start": 9626,
            "length": 20
          },
          {
            "start": 9798,
            "length": 20
          },
          {
            "start": 9941,
            "length": 20
          },
          {
            "start": 10034,
            "length": 20
          },
          {
            "start": 10166,
            "length": 20
          },
          {
            "start": 10884,
            "length": 20
          },
          {
            "start": 11055,
            "length": 20
          },
          {
            "start": 11231,
            "length": 20
          },
          {
            "start": 11415,
            "length": 20
          },
          {
            "start": 11779,
            "length": 20
          },
          {
            "start": 12529,
            "length": 20
          },
          {
            "start": 12678,
            "length": 20
          },
          {
            "start": 12943,
            "length": 20
          },
          {
            "start": 13071,
            "length": 20
          },
          {
            "start": 14669,
            "length": 20
          }
        ]
      }
    }
  },
  "methodIdentifiers": {
    "addDagVote(address,address,uint32)": "dceb5b79",
    "calculateReputation(address)": "27c06fd5",
    "changeDistDepthFromRecCellOnOp(address,uint32,uint32,uint32,uint32)": "c9aa10cf",
    "changeDistDepthRec(address,uint32,uint32,uint32,uint32,uint32,address,uint32,uint32)": "76a0ac6a",
    "changeDistDepthSent(address,uint32,uint32,uint32,uint32,uint32,address,uint32,uint32)": "6961d524",
    "changeName(address,string)": "45ca25ed",
    "collapseRecDagVoteIntoColumn(address,uint32)": "1008d193",
    "collapseSentDagVoteIntoColumn(address,uint32)": "cb819755",
    "dag()": "05279858",
    "findDistAtSameDepth(address,address)": "a16877d5",
    "findLastRecDagVoteAtDistDepth(address,uint32,uint32)": "cfaced4c",
    "findLastSentDagVoteAtDistDepth(address,uint32,uint32)": "7199f96b",
    "findNthParent(address,uint32)": "50ab6631",
    "findRecDagVote(address,address)": "b9aae95d",
    "findRecDagVotePosAtDistDepth(address,address,uint32,uint32)": "3d325c36",
    "findRecTreeVotePos(address,address)": "a571dcd7",
    "findRelDepth(address,address)": "dd88aa95",
    "findRelRoot(address)": "3aaf189b",
    "findSDistDepth(address,address)": "7fb2ed2a",
    "findSentDagVote(address,address)": "0520b5a4",
    "findSentDagVotePosAtDistDepth(address,address,uint32,uint32)": "270e32cd",
    "handleDagVoteMoveFall(address,address,address,uint32,uint32)": "71b5b199",
    "handleDagVoteMoveRise(address,address,address,uint32,uint32)": "d443c431",
    "handleLeavingVoterBranch(address)": "f358f683",
    "joinTree(address,string,address)": "eeaebe87",
    "joinTreeAsRoot(address,string)": "199cd8c0",
    "leaveTree(address)": "ff8f07de",
    "moveRecDagVoteDownLeftRising(address,uint32)": "a5c13998",
    "moveTreeVote(address,address)": "c5ce0318",
    "pullUpBranch(address,address)": "c9f05d09",
    "readDepth(address)": "825a3855",
    "readMaxRelRootDepth()": "e614a68d",
    "readName(address)": "806df959",
    "readRecDagVote(address,uint32,uint32,uint32)": "c0a6033c",
    "readRecDagVoteCount(address,uint32,uint32)": "7cb7ed44",
    "readRecDagVoteDepthDiff(address)": "d5a64361",
    "readRecDagVoteDistDiff(address)": "519bf72d",
    "readRecTreeVote(address,uint32)": "ebc9bd62",
    "readRecTreeVoteCount(address)": "49bb27e0",
    "readReputation(address)": "b062aaec",
    "readRoot()": "10839bf7",
    "readSentDagVote(address,uint32,uint32,uint32)": "429ccb05",
    "readSentDagVoteCount(address,uint32,uint32)": "2e4ba760",
    "readSentDagVoteDepthDiff(address)": "ab70b4c6",
    "readSentDagVoteDistDiff(address)": "39273f59",
    "readSentDagVoteTotalWeight(address)": "00a1efe5",
    "readSentTreeVote(address)": "59bf02a5",
    "recDagAppend(address,uint32,uint32,address,uint32,uint32)": "e1d9c364",
    "removeDagVote(address,address)": "37ba0eb1",
    "removeRecDagVoteCell(address,uint32,uint32)": "506ce800",
    "sortRecDagVoteColumn(address,uint32,address)": "26a049e8",
    "sortRecDagVoteColumnDescendants(address,address)": "b529ef4c",
    "sortSentDagVoteColumn(address,uint32,address)": "a3a88483",
    "switchPositionWithParent(address)": "6be22cd2",
    "switchTreeVoteWithParent(address)": "33df4a35",
    "unsafeReplaceRecDagVoteAtDistDepthPosWithLast(address,uint32,uint32,uint32)": "b740587e"
  },
  "id": 16
}