{
  "abi": [
    {
      "inputs": [],
      "stateMutability": "nonpayable",
      "type": "constructor"
    },
    {
      "anonymous": false,
      "inputs": [
        {
          "indexed": false,
          "internalType": "string",
          "name": "str",
          "type": "string"
        },
        {
          "indexed": false,
          "internalType": "uint256",
          "name": "randint",
          "type": "uint256"
        }
      ],
      "name": "SimpleEventForUpdates",
      "type": "event"
    },
    {
      "inputs": [
        {
          "internalType": "address",
          "name": "voter",
          "type": "address"
        },
        {
          "internalType": "address",
          "name": "recipient",
          "type": "address"
        },
        {
          "internalType": "uint32",
          "name": "weight",
          "type": "uint32"
        }
      ],
      "name": "addDagVote",
      "outputs": [],
      "stateMutability": "nonpayable",
      "type": "function"
    },
    {
      "inputs": [
        {
          "internalType": "address",
          "name": "voter",
          "type": "address"
        }
      ],
      "name": "calculateReputation",
      "outputs": [
        {
          "internalType": "uint256",
          "name": "",
          "type": "uint256"
        }
      ],
      "stateMutability": "nonpayable",
      "type": "function"
    },
    {
      "inputs": [
        {
          "internalType": "address",
          "name": "recipient",
          "type": "address"
        },
        {
          "internalType": "uint32",
          "name": "rdist",
          "type": "uint32"
        },
        {
          "internalType": "uint32",
          "name": "depth",
          "type": "uint32"
        },
        {
          "internalType": "uint32",
          "name": "oldRDist",
          "type": "uint32"
        },
        {
          "internalType": "uint32",
          "name": "oldDepth",
          "type": "uint32"
        }
      ],
      "name": "changeDistDepthFromRecCellOnOp",
      "outputs": [],
      "stateMutability": "nonpayable",
      "type": "function"
    },
    {
      "inputs": [
        {
          "internalType": "address",
          "name": "recipient",
          "type": "address"
        },
        {
          "internalType": "uint32",
          "name": "rdist",
          "type": "uint32"
        },
        {
          "internalType": "uint32",
          "name": "depth",
          "type": "uint32"
        },
        {
          "internalType": "uint32",
          "name": "rPos",
          "type": "uint32"
        },
        {
          "internalType": "uint32",
          "name": "newRDist",
          "type": "uint32"
        },
        {
          "internalType": "uint32",
          "name": "newDepth",
          "type": "uint32"
        },
        {
          "internalType": "address",
          "name": "voter",
          "type": "address"
        },
        {
          "internalType": "uint32",
          "name": "sPos",
          "type": "uint32"
        },
        {
          "internalType": "uint32",
          "name": "weight",
          "type": "uint32"
        }
      ],
      "name": "changeDistDepthRec",
      "outputs": [],
      "stateMutability": "nonpayable",
      "type": "function"
    },
    {
      "inputs": [
        {
          "internalType": "address",
          "name": "voter",
          "type": "address"
        },
        {
          "internalType": "uint32",
          "name": "sdist",
          "type": "uint32"
        },
        {
          "internalType": "uint32",
          "name": "depth",
          "type": "uint32"
        },
        {
          "internalType": "uint32",
          "name": "sPos",
          "type": "uint32"
        },
        {
          "internalType": "uint32",
          "name": "newSDist",
          "type": "uint32"
        },
        {
          "internalType": "uint32",
          "name": "newDepth",
          "type": "uint32"
        },
        {
          "internalType": "address",
          "name": "recipient",
          "type": "address"
        },
        {
          "internalType": "uint32",
          "name": "rPos",
          "type": "uint32"
        },
        {
          "internalType": "uint32",
          "name": "weight",
          "type": "uint32"
        }
      ],
      "name": "changeDistDepthSent",
      "outputs": [],
      "stateMutability": "nonpayable",
      "type": "function"
    },
    {
      "inputs": [
        {
          "internalType": "address",
          "name": "voter",
          "type": "address"
        },
        {
          "internalType": "uint32",
          "name": "rdistDestination",
          "type": "uint32"
        }
      ],
      "name": "collapseRecDagVoteIntoColumn",
      "outputs": [],
      "stateMutability": "nonpayable",
      "type": "function"
    },
    {
      "inputs": [
        {
          "internalType": "address",
          "name": "voter",
          "type": "address"
        },
        {
          "internalType": "uint32",
          "name": "sdistDestination",
          "type": "uint32"
        }
      ],
      "name": "collapseSentDagVoteIntoColumn",
      "outputs": [],
      "stateMutability": "nonpayable",
      "type": "function"
    },
    {
      "inputs": [],
      "name": "dag",
      "outputs": [
        {
          "internalType": "uint32",
          "name": "decimalPoint",
          "type": "uint32"
        },
        {
          "internalType": "uint32",
          "name": "MAX_REL_ROOT_DEPTH",
          "type": "uint32"
        },
        {
          "internalType": "address",
          "name": "root",
          "type": "address"
        }
      ],
      "stateMutability": "view",
      "type": "function"
    },
    {
      "inputs": [
        {
          "internalType": "address",
          "name": "add1",
          "type": "address"
        },
        {
          "internalType": "address",
          "name": "add2",
          "type": "address"
        }
      ],
      "name": "findDistAtSameDepth",
      "outputs": [
        {
          "internalType": "bool",
          "name": "isSameDepth",
          "type": "bool"
        },
        {
          "internalType": "uint32",
          "name": "distance",
          "type": "uint32"
        }
      ],
      "stateMutability": "view",
      "type": "function"
    },
    {
      "inputs": [
        {
          "internalType": "address",
          "name": "recipient",
          "type": "address"
        },
        {
          "internalType": "uint32",
          "name": "rdist",
          "type": "uint32"
        },
        {
          "internalType": "uint32",
          "name": "depth",
          "type": "uint32"
        }
      ],
      "name": "findLastRecDagVoteAtDistDepth",
      "outputs": [
        {
          "internalType": "bool",
          "name": "voted",
          "type": "bool"
        },
        {
          "internalType": "uint32",
          "name": "votePos",
          "type": "uint32"
        },
        {
          "components": [
            {
              "internalType": "address",
              "name": "id",
              "type": "address"
            },
            {
              "internalType": "uint32",
              "name": "weight",
              "type": "uint32"
            },
            {
              "internalType": "uint32",
              "name": "posInOther",
              "type": "uint32"
            }
          ],
          "internalType": "struct DagVote",
          "name": "vote",
          "type": "tuple"
        }
      ],
      "stateMutability": "view",
      "type": "function"
    },
    {
      "inputs": [
        {
          "internalType": "address",
          "name": "voter",
          "type": "address"
        },
        {
          "internalType": "uint32",
          "name": "sdist",
          "type": "uint32"
        },
        {
          "internalType": "uint32",
          "name": "depth",
          "type": "uint32"
        }
      ],
      "name": "findLastSentDagVoteAtDistDepth",
      "outputs": [
        {
          "internalType": "bool",
          "name": "voted",
          "type": "bool"
        },
        {
          "internalType": "uint32",
          "name": "votePos",
          "type": "uint32"
        },
        {
          "components": [
            {
              "internalType": "address",
              "name": "id",
              "type": "address"
            },
            {
              "internalType": "uint32",
              "name": "weight",
              "type": "uint32"
            },
            {
              "internalType": "uint32",
              "name": "posInOther",
              "type": "uint32"
            }
          ],
          "internalType": "struct DagVote",
          "name": "vote",
          "type": "tuple"
        }
      ],
      "stateMutability": "view",
      "type": "function"
    },
    {
      "inputs": [
        {
          "internalType": "address",
          "name": "voter",
          "type": "address"
        },
        {
          "internalType": "uint32",
          "name": "height",
          "type": "uint32"
        }
      ],
      "name": "findNthParent",
      "outputs": [
        {
          "internalType": "address",
          "name": "parent",
          "type": "address"
        }
      ],
      "stateMutability": "view",
      "type": "function"
    },
    {
      "inputs": [
        {
          "internalType": "address",
          "name": "voter",
          "type": "address"
        },
        {
          "internalType": "address",
          "name": "recipient",
          "type": "address"
        }
      ],
      "name": "findRecDagVote",
      "outputs": [
        {
          "internalType": "bool",
          "name": "votable",
          "type": "bool"
        },
        {
          "internalType": "bool",
          "name": "voted",
          "type": "bool"
        },
        {
          "internalType": "uint32",
          "name": "rdist",
          "type": "uint32"
        },
        {
          "internalType": "uint32",
          "name": "depth",
          "type": "uint32"
        },
        {
          "internalType": "uint32",
          "name": "votePos",
          "type": "uint32"
        },
        {
          "components": [
            {
              "internalType": "address",
              "name": "id",
              "type": "address"
            },
            {
              "internalType": "uint32",
              "name": "weight",
              "type": "uint32"
            },
            {
              "internalType": "uint32",
              "name": "posInOther",
              "type": "uint32"
            }
          ],
          "internalType": "struct DagVote",
          "name": "dagVote",
          "type": "tuple"
        }
      ],
      "stateMutability": "view",
      "type": "function"
    },
    {
      "inputs": [
        {
          "internalType": "address",
          "name": "voter",
          "type": "address"
        },
        {
          "internalType": "address",
          "name": "recipient",
          "type": "address"
        },
        {
          "internalType": "uint32",
          "name": "rdist",
          "type": "uint32"
        },
        {
          "internalType": "uint32",
          "name": "depth",
          "type": "uint32"
        }
      ],
      "name": "findRecDagVotePosAtDistDepth",
      "outputs": [
        {
          "internalType": "bool",
          "name": "voted",
          "type": "bool"
        },
        {
          "internalType": "uint32",
          "name": "votePos",
          "type": "uint32"
        },
        {
          "components": [
            {
              "internalType": "address",
              "name": "id",
              "type": "address"
            },
            {
              "internalType": "uint32",
              "name": "weight",
              "type": "uint32"
            },
            {
              "internalType": "uint32",
              "name": "posInOther",
              "type": "uint32"
            }
          ],
          "internalType": "struct DagVote",
          "name": "vote",
          "type": "tuple"
        }
      ],
      "stateMutability": "view",
      "type": "function"
    },
    {
      "inputs": [
        {
          "internalType": "address",
          "name": "voter",
          "type": "address"
        },
        {
          "internalType": "address",
          "name": "recipient",
          "type": "address"
        }
      ],
      "name": "findRecTreeVotePos",
      "outputs": [
        {
          "internalType": "bool",
          "name": "voted",
          "type": "bool"
        },
        {
          "internalType": "uint32",
          "name": "votePos",
          "type": "uint32"
        }
      ],
      "stateMutability": "view",
      "type": "function"
    },
    {
      "inputs": [
        {
          "internalType": "address",
          "name": "voter",
          "type": "address"
        },
        {
          "internalType": "address",
          "name": "recipient",
          "type": "address"
        }
      ],
      "name": "findRelDepth",
      "outputs": [
        {
          "internalType": "bool",
          "name": "isLocal",
          "type": "bool"
        },
        {
          "internalType": "uint32",
          "name": "relDepth",
          "type": "uint32"
        }
      ],
      "stateMutability": "view",
      "type": "function"
    },
    {
      "inputs": [
        {
          "internalType": "address",
          "name": "voter",
          "type": "address"
        }
      ],
      "name": "findRelRoot",
      "outputs": [
        {
          "internalType": "address",
          "name": "relRoot",
          "type": "address"
        },
        {
          "internalType": "uint32",
          "name": "relDepth",
          "type": "uint32"
        }
      ],
      "stateMutability": "view",
      "type": "function"
    },
    {
      "inputs": [
        {
          "internalType": "address",
          "name": "voter",
          "type": "address"
        },
        {
          "internalType": "address",
          "name": "recipient",
          "type": "address"
        }
      ],
      "name": "findSDistDepth",
      "outputs": [
        {
          "internalType": "bool",
          "name": "isLocal",
          "type": "bool"
        },
        {
          "internalType": "uint32",
          "name": "distance",
          "type": "uint32"
        },
        {
          "internalType": "uint32",
          "name": "relDepth",
          "type": "uint32"
        }
      ],
      "stateMutability": "view",
      "type": "function"
    },
    {
      "inputs": [
        {
          "internalType": "address",
          "name": "voter",
          "type": "address"
        },
        {
          "internalType": "address",
          "name": "recipient",
          "type": "address"
        }
      ],
      "name": "findSentDagVote",
      "outputs": [
        {
          "internalType": "bool",
          "name": "votable",
          "type": "bool"
        },
        {
          "internalType": "bool",
          "name": "voted",
          "type": "bool"
        },
        {
          "internalType": "uint32",
          "name": "sdist",
          "type": "uint32"
        },
        {
          "internalType": "uint32",
          "name": "depth",
          "type": "uint32"
        },
        {
          "internalType": "uint32",
          "name": "votePos",
          "type": "uint32"
        },
        {
          "components": [
            {
              "internalType": "address",
              "name": "id",
              "type": "address"
            },
            {
              "internalType": "uint32",
              "name": "weight",
              "type": "uint32"
            },
            {
              "internalType": "uint32",
              "name": "posInOther",
              "type": "uint32"
            }
          ],
          "internalType": "struct DagVote",
          "name": "dagVote",
          "type": "tuple"
        }
      ],
      "stateMutability": "view",
      "type": "function"
    },
    {
      "inputs": [
        {
          "internalType": "address",
          "name": "voter",
          "type": "address"
        },
        {
          "internalType": "address",
          "name": "recipient",
          "type": "address"
        },
        {
          "internalType": "uint32",
          "name": "sdist",
          "type": "uint32"
        },
        {
          "internalType": "uint32",
          "name": "depth",
          "type": "uint32"
        }
      ],
      "name": "findSentDagVotePosAtDistDepth",
      "outputs": [
        {
          "internalType": "bool",
          "name": "voted",
          "type": "bool"
        },
        {
          "internalType": "uint32",
          "name": "votePos",
          "type": "uint32"
        },
        {
          "components": [
            {
              "internalType": "address",
              "name": "id",
              "type": "address"
            },
            {
              "internalType": "uint32",
              "name": "weight",
              "type": "uint32"
            },
            {
              "internalType": "uint32",
              "name": "posInOther",
              "type": "uint32"
            }
          ],
          "internalType": "struct DagVote",
          "name": "vote",
          "type": "tuple"
        }
      ],
      "stateMutability": "view",
      "type": "function"
    },
    {
      "inputs": [
        {
          "internalType": "address",
          "name": "voter",
          "type": "address"
        },
        {
          "internalType": "address",
          "name": "recipient",
          "type": "address"
        },
        {
          "internalType": "address",
          "name": "replaced",
          "type": "address"
        },
        {
          "internalType": "uint32",
          "name": "moveDist",
          "type": "uint32"
        },
        {
          "internalType": "uint32",
          "name": "depthToRec",
          "type": "uint32"
        }
      ],
      "name": "handleDagVoteMoveFall",
      "outputs": [],
      "stateMutability": "nonpayable",
      "type": "function"
    },
    {
      "inputs": [
        {
          "internalType": "address",
          "name": "voter",
          "type": "address"
        },
        {
          "internalType": "address",
          "name": "recipient",
          "type": "address"
        },
        {
          "internalType": "address",
          "name": "replaced",
          "type": "address"
        },
        {
          "internalType": "uint32",
          "name": "moveDist",
          "type": "uint32"
        },
        {
          "internalType": "uint32",
          "name": "depthToRec",
          "type": "uint32"
        }
      ],
      "name": "handleDagVoteMoveRise",
      "outputs": [],
      "stateMutability": "nonpayable",
      "type": "function"
    },
    {
      "inputs": [
        {
          "internalType": "address",
          "name": "voter",
          "type": "address"
        }
      ],
      "name": "handleLeavingVoterBranch",
      "outputs": [],
      "stateMutability": "nonpayable",
      "type": "function"
    },
    {
      "inputs": [
        {
          "internalType": "address",
          "name": "voter",
          "type": "address"
        },
        {
          "internalType": "string",
          "name": "name",
          "type": "string"
        },
        {
          "internalType": "address",
          "name": "recipient",
          "type": "address"
        }
      ],
      "name": "joinTree",
      "outputs": [],
      "stateMutability": "nonpayable",
      "type": "function"
    },
    {
      "inputs": [
        {
          "internalType": "address",
          "name": "voter",
          "type": "address"
        },
        {
          "internalType": "string",
          "name": "name",
          "type": "string"
        }
      ],
      "name": "joinTreeAsRoot",
      "outputs": [],
      "stateMutability": "nonpayable",
      "type": "function"
    },
    {
      "inputs": [
        {
          "internalType": "address",
          "name": "voter",
          "type": "address"
        }
      ],
      "name": "leaveTree",
      "outputs": [],
      "stateMutability": "nonpayable",
      "type": "function"
    },
    {
      "inputs": [
        {
          "internalType": "address",
          "name": "voter",
          "type": "address"
        },
        {
          "internalType": "uint32",
          "name": "diff",
          "type": "uint32"
        }
      ],
      "name": "moveRecDagVoteDownLeftRising",
      "outputs": [],
      "stateMutability": "nonpayable",
      "type": "function"
    },
    {
      "inputs": [
        {
          "internalType": "address",
          "name": "voter",
          "type": "address"
        },
        {
          "internalType": "address",
          "name": "recipient",
          "type": "address"
        }
      ],
      "name": "moveTreeVote",
      "outputs": [],
      "stateMutability": "nonpayable",
      "type": "function"
    },
    {
      "inputs": [
        {
          "internalType": "address",
          "name": "pulledVoter",
          "type": "address"
        },
        {
          "internalType": "address",
          "name": "parent",
          "type": "address"
        }
      ],
      "name": "pullUpBranch",
      "outputs": [],
      "stateMutability": "nonpayable",
      "type": "function"
    },
    {
      "inputs": [
        {
          "internalType": "address",
          "name": "voter",
          "type": "address"
        }
      ],
      "name": "readDepth",
      "outputs": [
        {
          "internalType": "uint32",
          "name": "",
          "type": "uint32"
        }
      ],
      "stateMutability": "view",
      "type": "function"
    },
    {
      "inputs": [],
      "name": "readMaxRelRootDepth",
      "outputs": [
        {
          "internalType": "uint32",
          "name": "",
          "type": "uint32"
        }
      ],
      "stateMutability": "view",
      "type": "function"
    },
    {
      "inputs": [
        {
          "internalType": "address",
          "name": "voter",
          "type": "address"
        }
      ],
      "name": "readName",
      "outputs": [
        {
          "internalType": "string",
          "name": "",
          "type": "string"
        }
      ],
      "stateMutability": "view",
      "type": "function"
    },
    {
      "inputs": [
        {
          "internalType": "address",
          "name": "recipient",
          "type": "address"
        },
        {
          "internalType": "uint32",
          "name": "rdist",
          "type": "uint32"
        },
        {
          "internalType": "uint32",
          "name": "depth",
          "type": "uint32"
        },
        {
          "internalType": "uint32",
          "name": "votePos",
          "type": "uint32"
        }
      ],
      "name": "readRecDagVote",
      "outputs": [
        {
          "components": [
            {
              "internalType": "address",
              "name": "id",
              "type": "address"
            },
            {
              "internalType": "uint32",
              "name": "weight",
              "type": "uint32"
            },
            {
              "internalType": "uint32",
              "name": "posInOther",
              "type": "uint32"
            }
          ],
          "internalType": "struct DagVote",
          "name": "",
          "type": "tuple"
        }
      ],
      "stateMutability": "view",
      "type": "function"
    },
    {
      "inputs": [
        {
          "internalType": "address",
          "name": "recipient",
          "type": "address"
        },
        {
          "internalType": "uint32",
          "name": "rdist",
          "type": "uint32"
        },
        {
          "internalType": "uint32",
          "name": "depth",
          "type": "uint32"
        }
      ],
      "name": "readRecDagVoteCount",
      "outputs": [
        {
          "internalType": "uint32",
          "name": "",
          "type": "uint32"
        }
      ],
      "stateMutability": "view",
      "type": "function"
    },
    {
      "inputs": [
        {
          "internalType": "address",
          "name": "recipient",
          "type": "address"
        }
      ],
      "name": "readRecDagVoteDepthDiff",
      "outputs": [
        {
          "internalType": "uint32",
          "name": "",
          "type": "uint32"
        }
      ],
      "stateMutability": "view",
      "type": "function"
    },
    {
      "inputs": [
        {
          "internalType": "address",
          "name": "recipient",
          "type": "address"
        }
      ],
      "name": "readRecDagVoteDistDiff",
      "outputs": [
        {
          "internalType": "uint32",
          "name": "",
          "type": "uint32"
        }
      ],
      "stateMutability": "view",
      "type": "function"
    },
    {
      "inputs": [
        {
          "internalType": "address",
          "name": "recipient",
          "type": "address"
        },
        {
          "internalType": "uint32",
          "name": "votePos",
          "type": "uint32"
        }
      ],
      "name": "readRecTreeVote",
      "outputs": [
        {
          "internalType": "address",
          "name": "",
          "type": "address"
        }
      ],
      "stateMutability": "view",
      "type": "function"
    },
    {
      "inputs": [
        {
          "internalType": "address",
          "name": "recipient",
          "type": "address"
        }
      ],
      "name": "readRecTreeVoteCount",
      "outputs": [
        {
          "internalType": "uint32",
          "name": "",
          "type": "uint32"
        }
      ],
      "stateMutability": "view",
      "type": "function"
    },
    {
      "inputs": [
        {
          "internalType": "address",
          "name": "voter",
          "type": "address"
        }
      ],
      "name": "readReputation",
      "outputs": [
        {
          "internalType": "uint256",
          "name": "",
          "type": "uint256"
        }
      ],
      "stateMutability": "view",
      "type": "function"
    },
    {
      "inputs": [],
      "name": "readRoot",
      "outputs": [
        {
          "internalType": "address",
          "name": "",
          "type": "address"
        }
      ],
      "stateMutability": "view",
      "type": "function"
    },
    {
      "inputs": [
        {
          "internalType": "address",
          "name": "voter",
          "type": "address"
        },
        {
          "internalType": "uint32",
          "name": "sdist",
          "type": "uint32"
        },
        {
          "internalType": "uint32",
          "name": "depth",
          "type": "uint32"
        },
        {
          "internalType": "uint32",
          "name": "votePos",
          "type": "uint32"
        }
      ],
      "name": "readSentDagVote",
      "outputs": [
        {
          "components": [
            {
              "internalType": "address",
              "name": "id",
              "type": "address"
            },
            {
              "internalType": "uint32",
              "name": "weight",
              "type": "uint32"
            },
            {
              "internalType": "uint32",
              "name": "posInOther",
              "type": "uint32"
            }
          ],
          "internalType": "struct DagVote",
          "name": "",
          "type": "tuple"
        }
      ],
      "stateMutability": "view",
      "type": "function"
    },
    {
      "inputs": [
        {
          "internalType": "address",
          "name": "voter",
          "type": "address"
        },
        {
          "internalType": "uint32",
          "name": "sdist",
          "type": "uint32"
        },
        {
          "internalType": "uint32",
          "name": "depth",
          "type": "uint32"
        }
      ],
      "name": "readSentDagVoteCount",
      "outputs": [
        {
          "internalType": "uint32",
          "name": "",
          "type": "uint32"
        }
      ],
      "stateMutability": "view",
      "type": "function"
    },
    {
      "inputs": [
        {
          "internalType": "address",
          "name": "voter",
          "type": "address"
        }
      ],
      "name": "readSentDagVoteDepthDiff",
      "outputs": [
        {
          "internalType": "uint32",
          "name": "",
          "type": "uint32"
        }
      ],
      "stateMutability": "view",
      "type": "function"
    },
    {
      "inputs": [
        {
          "internalType": "address",
          "name": "voter",
          "type": "address"
        }
      ],
      "name": "readSentDagVoteDistDiff",
      "outputs": [
        {
          "internalType": "uint32",
          "name": "",
          "type": "uint32"
        }
      ],
      "stateMutability": "view",
      "type": "function"
    },
    {
      "inputs": [
        {
          "internalType": "address",
          "name": "voter",
          "type": "address"
        }
      ],
      "name": "readSentDagVoteTotalWeight",
      "outputs": [
        {
          "internalType": "uint32",
          "name": "",
          "type": "uint32"
        }
      ],
      "stateMutability": "view",
      "type": "function"
    },
    {
      "inputs": [
        {
          "internalType": "address",
          "name": "voter",
          "type": "address"
        }
      ],
      "name": "readSentTreeVote",
      "outputs": [
        {
          "internalType": "address",
          "name": "",
          "type": "address"
        }
      ],
      "stateMutability": "view",
      "type": "function"
    },
    {
      "inputs": [
        {
          "internalType": "address",
          "name": "recipient",
          "type": "address"
        },
        {
          "internalType": "uint32",
          "name": "rdist",
          "type": "uint32"
        },
        {
          "internalType": "uint32",
          "name": "depth",
          "type": "uint32"
        },
        {
          "internalType": "address",
          "name": "voter",
          "type": "address"
        },
        {
          "internalType": "uint32",
          "name": "weight",
          "type": "uint32"
        },
        {
          "internalType": "uint32",
          "name": "sPos",
          "type": "uint32"
        }
      ],
      "name": "recDagAppend",
      "outputs": [],
      "stateMutability": "nonpayable",
      "type": "function"
    },
    {
      "inputs": [
        {
          "internalType": "address",
          "name": "voter",
          "type": "address"
        },
        {
          "internalType": "address",
          "name": "recipient",
          "type": "address"
        }
      ],
      "name": "removeDagVote",
      "outputs": [],
      "stateMutability": "nonpayable",
      "type": "function"
    },
    {
      "inputs": [
        {
          "internalType": "address",
          "name": "recipient",
          "type": "address"
        },
        {
          "internalType": "uint32",
          "name": "rdist",
          "type": "uint32"
        },
        {
          "internalType": "uint32",
          "name": "depth",
          "type": "uint32"
        }
      ],
      "name": "removeRecDagVoteCell",
      "outputs": [],
      "stateMutability": "nonpayable",
      "type": "function"
    },
    {
      "inputs": [
        {
          "internalType": "address",
          "name": "recipient",
          "type": "address"
        },
        {
          "internalType": "uint32",
          "name": "rdist",
          "type": "uint32"
        },
        {
          "internalType": "address",
          "name": "newTreeVote",
          "type": "address"
        }
      ],
      "name": "sortRecDagVoteColumn",
      "outputs": [],
      "stateMutability": "nonpayable",
      "type": "function"
    },
    {
      "inputs": [
        {
          "internalType": "address",
          "name": "recipient",
          "type": "address"
        },
        {
          "internalType": "address",
          "name": "replaced",
          "type": "address"
        }
      ],
      "name": "sortRecDagVoteColumnDescendants",
      "outputs": [],
      "stateMutability": "nonpayable",
      "type": "function"
    },
    {
      "inputs": [
        {
          "internalType": "address",
          "name": "voter",
          "type": "address"
        },
        {
          "internalType": "uint32",
          "name": "sdist",
          "type": "uint32"
        },
        {
          "internalType": "address",
          "name": "newTreeVote",
          "type": "address"
        }
      ],
      "name": "sortSentDagVoteColumn",
      "outputs": [],
      "stateMutability": "nonpayable",
      "type": "function"
    },
    {
      "inputs": [
        {
          "internalType": "address",
          "name": "voter",
          "type": "address"
        }
      ],
      "name": "switchPositionWithParent",
      "outputs": [],
      "stateMutability": "nonpayable",
      "type": "function"
    },
    {
      "inputs": [
        {
          "internalType": "address",
          "name": "voter",
          "type": "address"
        }
      ],
      "name": "switchTreeVoteWithParent",
      "outputs": [],
      "stateMutability": "nonpayable",
      "type": "function"
    },
    {
      "inputs": [
        {
          "internalType": "address",
          "name": "recipient",
          "type": "address"
        },
        {
          "internalType": "uint32",
          "name": "rdist",
          "type": "uint32"
        },
        {
          "internalType": "uint32",
          "name": "depth",
          "type": "uint32"
        },
        {
          "internalType": "uint32",
          "name": "rPos",
          "type": "uint32"
        }
      ],
      "name": "unsafeReplaceRecDagVoteAtDistDepthPosWithLast",
      "outputs": [],
      "stateMutability": "nonpayable",
      "type": "function"
    }
  ],
  "bytecode": {
    "object": "0x6080806040523461002d57600080546001600160401b031916640600000012179055613a3790816100338239f35b600080fdfe60a080604052600436101561001357600080fd5b600060805260003560e01c908162a1efe514612f93575080630520b5a414612ef35780630527985814612eb05780631008d19314612e2957806310839bf714612d87578063199cd8c014612b0957806326a049e814612a76578063270e32cd14612a0757806327c06fd5146129dc5780632e4ba7601461299257806333df4a351461291b57806337ba0eb11461280157806339273f59146127885780633aaf189b146126dd5780633d325c361461266e578063429ccb051461263157806349bb27e0146125b8578063506ce8001461254e57806350ab6631146124c1578063519bf72d1461244857806359bf02a51461239b5780636961d524146123425780636be22cd2146121695780637199f96b1461211657806371b5b1991461208c57806376a0ac6a146120335780637cb7ed4414611fb15780637fb2ed2a14611ef3578063806df95914611db7578063825a385514611d86578063a16877d514611cf0578063a3a8848314611c5d578063a571dcd714611bc7578063a5c1399814611b40578063ab70b4c614611ac7578063b062aaec14611a26578063b529ef4c1461199d578063b740587e14611949578063b9aae95d14611878578063c0a6033c146117a2578063c5ce031814610ffc578063c9aa10cf14610f41578063c9f05d0914610eb8578063cb81975514610e31578063cfaced4c14610d39578063d443c43114610c9f578063d5a6436114610bf0578063dceb5b7914610a79578063dd88aa95146109ac578063e1d9c364146108d6578063e614a68d14610838578063ebc9bd621461076f578063eeaebe871461045a578063f358f683146103e35763ff8f07de1461028057600080fd5b346103b35760203660031901126103b357610299613008565b6000805160206139e283398151915260606040516040815260805160408201526080516020820152a173__$49ce59d1ddda15b782622b110191f6a6ba$__803b156103b35760405163039c39a160e01b81526080805160048301526001600160a01b0390931660248201819052925181604481855af480156103a6576103ce575b50803b156103b357604051633c53f05560e21b8152608080516004830152602482018490525181604481855af480156103a6576103b9575b50803b156103b35760405191632cc8ea6f60e01b83526080516004840152602483015281604481608051935af480156103a657610390575b60805180f35b610399906132f5565b608051801561038a575b80fd5b6040513d608051823e3d90fd5b60805180fd5b6103c2906132f5565b60805180156103525780fd5b6103d7906132f5565b608051801561031a5780fd5b346103b35760203660031901126103b3576103fc613008565b73__$49ce59d1ddda15b782622b110191f6a6ba$__803b156103b357604051632cc8ea6f60e01b81526080805160048301526001600160a01b039093166024820152915190829060449082905af480156103a6576103905760805180f35b346103b35760603660031901126103b357610473613008565b67ffffffffffffffff906024358281116103b3576104959036906004016130e2565b9190926104a0613034565b90604051946040865260805160408701526000805160206139e283398151915260606080519760209889820152a161051260018060a01b0380809616948560805152600289526104f8826040608051205416156132c3565b1694856080515260028852604060805120541615156132c3565b836080515260039081875263ffffffff926105376002856040608051205416106132c3565b84608051526002885260805160408120926bffffffffffffffffffffffff60a01b938885825416179055600191828b5260408120938a11610758575082546080518382811c9216801561074e575b8c8310146107375750601f81116106eb575b5060805190601f8a116001146106865798809281928a9b60809b98999a9b519461067b575b50501b9160001990871b1c19161790555b8160805152600487526080516040812090848952856040822054169052875260805190856040832091825416179055528085526106118260406080512054166132e0565b9360805152845260805190604082209063ffffffff19941684825416179055526005825260805191600b60408420916103e892838582541617905560068152604085208385825416179055600a815260408520838582541617905552604083209182541617905580f35b013592508c806105bc565b8382526080518b8120601f198c169b939092915b8d8d82106106d7575050838b9c9b98999a9b106106bf575b505050811b0190556105cd565b013560001983891b60f8161c191690558a80806106b2565b83830135855593860193918201910161069a565b83608051526080518b8120601f8c0160051c8101928d8d1061072d575b601f0160051c019184905b83811061072257505050610597565b828155018490610713565b9092508290610708565b634e487b7160e01b90526022600452608051602490fd5b91607f1691610585565b634e487b7160e01b90526041600452608051602490fd5b346103b35760403660031901126103b357610788613008565b6107906130a9565b60405163c78fff5b60e01b815260805160048201526001600160a01b03928316602482015263ffffffff90911660448201529060208260648173__$49ce59d1ddda15b782622b110191f6a6ba$__5af49081156103a657608051916107fd575b6020925060405191168152f35b90506020823d8211610830575b816108176020938361331f565b810103126103b35761082a60209261335f565b906107f0565b3d915061080a565b346103b357608051806003193601126103a357604051638c001bb760e01b8152608051600482015260208160248173__$49ce59d1ddda15b782622b110191f6a6ba$__5af480156103a6576080519061089d575b60209063ffffffff60405191168152f35b506020813d82116108ce575b816108b66020938361331f565b810103126103b3576108c960209161334e565b61088c565b3d91506108a9565b346103b35760c03660031901126103b3576108ef613008565b6108f76130a9565b6108ff6130bc565b6001600160a01b039190606435838116908190036109a75761091f6130cf565b9060a4359363ffffffff938486168096036109a75773__$49ce59d1ddda15b782622b110191f6a6ba$__96873b156103b357859283916040519a6310cbc75560e21b8c5260805160048d01521660248b015216604489015216606487015260848601521660a484015260c48301528160e481608051935af480156103a6576103905760805180f35b600080fd5b346103b35760403660031901126103b3576109c5613008565b6109cd61301e565b60408051637485fa6b60e01b815260805160048201526001600160a01b0393841660248201529290911660448301528160648173__$49ce59d1ddda15b782622b110191f6a6ba$__5af49081156103a657608051908192610a47575b5060408051911515825263ffffffff929092166020820152f35b0390f35b9050610a6b915060403d604011610a72575b610a63818361331f565b81019061393e565b9082610a29565b503d610a59565b346103b35760603660031901126103b357610a92613008565b610a9a61301e565b90610aa36130bc565b906000805160206139e283398151915260606040516040815260805160408201526080516020820152a1604051637e168e6360e11b815260805160048201526001600160a01b0391821660248201819052939091166044820181905273__$49ce59d1ddda15b782622b110191f6a6ba$__9290610100908184606481885af49384156103a65760805190819082948397610bb0575b505090610b4b9181610ba7575b506132c3565b843b156103b35760405195639037412f60e01b875260805160048801526024870152604486015263ffffffff928380921660648701521660848501521660a48301528160c481608051935af480156103a6576103905760805180f35b90501588610b45565b91509150610b4b9550610bd9929350803d10610be9575b610bd1818361331f565b8101906133cb565b5090969194939291905089610b38565b503d610bc7565b346103b3576020806003193601126103b357610c0a613008565b60405163cc0a57c960e01b815260805160048201526001600160a01b039091166024820152818160448173__$49ce59d1ddda15b782622b110191f6a6ba$__5af49081156103a65760805191610c6a575b5063ffffffff60405191168152f35b90508181813d8311610c98575b610c81818361331f565b810103126103b357610c929061334e565b82610c5b565b503d610c77565b346103b357610cad36613243565b9392909173__$49ce59d1ddda15b782622b110191f6a6ba$__91823b156103b35760405163241d9d2160e21b8152608051600060048301526001600160a01b039687166024830152918616604482015291909416606482015263ffffffff92831660848201529390911660a48401528290818060c481015b03915af480156103a6576103905760805180f35b346103b35760603660031901126103b357610d52613008565b60a0610d5c6130a9565b610d646130bc565b92610d6d61390e565b50610d8c60405194859384936330e995ed60e21b855260048501613523565b038173__$49ce59d1ddda15b782622b110191f6a6ba$__5af480156103a6576080519081928291610dfb575b5060408051921515835263ffffffff93841660208085019190915282516001600160a01b031684830152820151841660608401520151909116608082015260a090f35b9050610a439250610e23915060a03d8111610e2a575b610e1b818361331f565b810190613958565b9092610db8565b503d610e11565b346103b35760403660031901126103b357610e4a613008565b610e526130a9565b73__$49ce59d1ddda15b782622b110191f6a6ba$__90813b156103b35763ffffffff90604051936340d420a960e01b8552608051600486015260018060a01b0316602485015216604483015281606481608051935af480156103a6576103905760805180f35b346103b35760403660031901126103b357610ed1613008565b610ed961301e565b9073__$49ce59d1ddda15b782622b110191f6a6ba$__90813b156103b357604051635bb7eaf960e11b81526080805160048301526001600160a01b0392831660248301529190931660448401525190829060649082905af480156103a6576103905760805180f35b346103b35760a03660031901126103b357610f5a613008565b610f626130a9565b610f6a6130bc565b906064359063ffffffff918281168091036109a757610f876130cf565b9173__$49ce59d1ddda15b782622b110191f6a6ba$__94853b156103b35784809260405198630387fa9760e41b8a5260805160048b015260018060a01b031660248a015216604488015216606486015260848501521660a48301528160c481608051935af480156103a6576103905760805180f35b346103b35760403660031901126103b357611015613008565b61101d61301e565b6000805160206139e283398151915260606040516040815260805160408201526080516020820152a1608080516001600160a01b03848116909152600260205290516040902054611070911615156132c3565b608080516001600160a01b0383811690915260026020529051604090205461109a911615156132c3565b60018060a01b0381166080515260036020526110c4600263ffffffff6040608051205416106132c3565b60408051624c9bfd60e11b815260805160048201526001600160a01b0384166024820152908160448173__$49ce59d1ddda15b782622b110191f6a6ba$__5af49081156103a65760805191611772575b5060405163873823fb60e01b815260805160048201526001600160a01b038381166024830152841660448201529060608260648173__$49ce59d1ddda15b782622b110191f6a6ba$__5af480156103a657608051908193829161174b575b50809361117f82826134f9565b60405163873823fb60e01b815260805160048201526001600160a01b038981166024830152881660448201529094909260608460648173__$49ce59d1ddda15b782622b110191f6a6ba$__5af49485156103a6576080519081958297611722575b5060405163873823fb60e01b815260805160048201526001600160a01b038b81166024830152909416604485015260608460648173__$49ce59d1ddda15b782622b110191f6a6ba$__5af49283156103a65760805193849585916116e8575b506112569063ffffffff6080515460201c166134f9565b9563ffffffff80881681881601116116d257608080516001600160a01b038f81169091526002602052905160408120549091169073__$49ce59d1ddda15b782622b110191f6a6ba$__3b156103a357508d60405190632cc8ea6f60e01b8252608051600483015260018060a01b031660248201526080518160448173__$49ce59d1ddda15b782622b110191f6a6ba$__5af480156103a6576116bd575b5063ffffffff8b1615806116b6575b6115ec575b5050506000146114075750505050505073__$49ce59d1ddda15b782622b110191f6a6ba$__3b156103b35761135691604051809381926326da1a9d60e11b8352608051948789600486016138d1565b038173__$49ce59d1ddda15b782622b110191f6a6ba$__5af480156103a6576113f2575b505b73__$49ce59d1ddda15b782622b110191f6a6ba$__3b156103b357604051632ce48cf360e21b81526080805160048301526001600160a01b039384166024830152919092166044830152518160648173__$49ce59d1ddda15b782622b110191f6a6ba$__5af480156103a6576103905760805180f35b6113fb906132f5565b608051801561137a5780fd5b91939550919395506000146114975750505073__$49ce59d1ddda15b782622b110191f6a6ba$__3b156103b357611458916040518093819263241d9d2160e21b8352608051948789600486016138d1565b038173__$49ce59d1ddda15b782622b110191f6a6ba$__5af480156103a657611482575b5061137c565b61148b906132f5565b608051801561147c5780fd5b9193509150806115dc575b156114f15773__$49ce59d1ddda15b782622b110191f6a6ba$__3b156103b357611458916040518093819263241d9d2160e21b83526080519463ffffffff8083169116018789600486016138d1565b505073__$49ce59d1ddda15b782622b110191f6a6ba$__3b156103b35760405163039c39a160e01b81526080805160048301526001600160a01b0384166024830152518160448173__$49ce59d1ddda15b782622b110191f6a6ba$__5af480156103a6576115c7575b5073__$49ce59d1ddda15b782622b110191f6a6ba$__3b156103b357604051633c53f05560e21b81526080805160048301526001600160a01b0384166024830152518160448173__$49ce59d1ddda15b782622b110191f6a6ba$__5af480156103a657611482575061137c565b6115d0906132f5565b608051801561155a5780fd5b50600163ffffffff8316116114a2565b604051631eab285960e21b815260805160048201526001600160a01b038e16602482015263ffffffff8416604482015260208160648173__$49ce59d1ddda15b782622b110191f6a6ba$__5af49081156103a6576080519161167c575b506001600160a01b03161461165f575b80611307565b611674929a5061166e906134e3565b506134e3565b978b80611659565b90506020813d6020116116ae575b816116976020938361331f565b810103126103b3576116a89061335f565b8f611649565b3d915061168a565b5083611302565b6116c6906132f5565b60805180156112f35780fd5b634e487b7160e01b600052601160045260246000fd5b9050611712919550611256945060603d60601161171b575b61170a818361331f565b8101906138ab565b9095919461123f565b503d611700565b9150955061174091945060603d60601161171b5761170a818361331f565b94919094958b6111e0565b91505061176891925060603d60601161171b5761170a818361331f565b9291909286611172565b611794915060403d60401161179b575b61178c818361331f565b81019061388a565b5083611114565b503d611782565b346103b3576117df60606117b536613161565b6117c395919593929361390e565b506040516306a6c17960e41b8152958694859460048601613431565b038173__$49ce59d1ddda15b782622b110191f6a6ba$__5af480156103a6576080519061183e575b60609061183c604051809260409060018060a01b0381511683528163ffffffff91826020820151166020860152015116910152565bf35b5060603d8111611871575b611853818361331f565b8101906060818303126103b35760609161186c91613373565b611807565b503d611849565b346103b35760403660031901126103b357611891613008565b61189961301e565b906118a261390e565b5060405163b7f9a17960e01b815260805160048201526001600160a01b0391821660248201529116604482015261010090818160648173__$49ce59d1ddda15b782622b110191f6a6ba$__5af480156103a65760805190819282839084928594611919575b5060405196508695610a43958761304a565b94505050505061193a915082610a4393903d10610be957610bd1818361331f565b93958695949391929190611907565b346103b35761195736613161565b9092919273__$49ce59d1ddda15b782622b110191f6a6ba$__90813b156103b357610d259460405195869485938493630ed8ebe360e21b85526080519860048601613431565b346103b35760403660031901126103b3576119b6613008565b6119be61301e565b9073__$49ce59d1ddda15b782622b110191f6a6ba$__90813b156103b3576040516306a299cf60e21b81526080805160048301526001600160a01b0392831660248301529190931660448401525190829060649082905af480156103a6576103905760805180f35b346103b3576020806003193601126103b357611a40613008565b6040516302fd7b8d60e21b815260805160048201526001600160a01b039091166024820152818160448173__$49ce59d1ddda15b782622b110191f6a6ba$__5af49081156103a65760805191611a9a575b50604051908152f35b90508181813d8311611ac0575b611ab1818361331f565b810103126103b3575182611a91565b503d611aa7565b346103b3576020806003193601126103b357611ae1613008565b604051638cea4c9b60e01b815260805160048201526001600160a01b039091166024820152818160448173__$49ce59d1ddda15b782622b110191f6a6ba$__5af49081156103a65760805191610c6a575063ffffffff60405191168152f35b346103b35760403660031901126103b357611b59613008565b611b616130a9565b73__$49ce59d1ddda15b782622b110191f6a6ba$__90813b156103b35763ffffffff906040519363714fc7e360e01b8552608051600486015260018060a01b0316602485015216604483015281606481608051935af480156103a6576103905760805180f35b346103b35760403660031901126103b357611be0613008565b611be861301e565b6040805163eb826b3d60e01b815260805160048201526001600160a01b0393841660248201529290911660448301528160648173__$49ce59d1ddda15b782622b110191f6a6ba$__5af49081156103a657608051908192610a47575060408051911515825263ffffffff929092166020820152f35b346103b35760603660031901126103b357611c76613008565b611c7e6130a9565b90611c87613034565b73__$49ce59d1ddda15b782622b110191f6a6ba$__803b156103b35760405163fb4f1b0960e01b8152608051600060048301526001600160a01b03948516602483015263ffffffff90951660448201529290911660648301529091908290818060848101610d25565b346103b35760403660031901126103b357611d09613008565b611d1161301e565b6040805163d934a2b160e01b815260805160048201526001600160a01b0393841660248201529290911660448301528160648173__$49ce59d1ddda15b782622b110191f6a6ba$__5af49081156103a657608051908192610a47575060408051911515825263ffffffff929092166020820152f35b346103b35760203660031901126103b3576020611da9611da4613008565b613468565b63ffffffff60405191168152f35b346103b3576020806003193601126103b357611dd1613008565b6040516315611cab60e21b81526080805160048301526001600160a01b03909216602482015290518160448173__$49ce59d1ddda15b782622b110191f6a6ba$__5af49081156103a65760805191611e55575b611e476040848482519382859384528251928184809387015286860191016132a0565b601f01601f19168101030190f35b903d8091833e611e65818361331f565b81019180828403126103b357815167ffffffffffffffff928382116103b357019280601f850112156103b3578351928311611edb5760405190611eb1601f8501601f191684018361331f565b8382528284860101116103b357611ed3604093611e47958480850191016132a0565b915091611e24565b634e487b7160e01b6080515260416004526024608051fd5b346103b35760403660031901126103b357611f0c613008565b611f1461301e565b60405163873823fb60e01b815260805160048201526001600160a01b0392831660248201529116604482015260608160648173__$49ce59d1ddda15b782622b110191f6a6ba$__5af480156103a6576060916080519182918391611f91575b50604051921515835263ffffffff8092166020840152166040820152f35b915050611fab9150823d811161171b5761170a818361331f565b84611f73565b346103b35760603660031901126103b357611fca613008565b6020611fd46130a9565b611fdc6130bc565b92611ffb60405194859384936351dc622d60e11b855260048501613523565b038173__$49ce59d1ddda15b782622b110191f6a6ba$__5af480156103a6576080519061089d5760209063ffffffff60405191168152f35b346103b357612041366131af565b90979692919495939773__$49ce59d1ddda15b782622b110191f6a6ba$__95863b156103b357610d25936040519a8b998a988998630ba8c3c360e41b8a526080519d60048b0161397f565b346103b35761209a36613243565b9392909173__$49ce59d1ddda15b782622b110191f6a6ba$__91823b156103b3576040516326da1a9d60e11b8152608051600060048301526001600160a01b039687166024830152918616604482015291909416606482015263ffffffff92831660848201529390911660a48401528290818060c48101610d25565b346103b35760603660031901126103b35761212f613008565b60a06121396130a9565b6121416130bc565b9261214a61390e565b50610d8c6040519485938493632c159e2b60e11b855260048501613523565b346103b35760203660031901126103b357612182613008565b6000805160206139e28339815191526060604051604081526000604082015260006020820152a16001600160a01b0381811660009081526002602052604090205481166121d08115156132c3565b6121dd60018214156132c3565b6001600160a01b038116600090815260026020526040902054821690612214612205856135b9565b61220e836135b9565b106132c3565b73__$49ce59d1ddda15b782622b110191f6a6ba$__92833b156103b357604051946326da1a9d60e11b865260006004870152826024870152826044870152169384606482015260006084820152600060a48201526080518160c481875af4801561231857612333575b50823b156103b3576040519163241d9d2160e21b8352600060048401528460248401526044830152606482015260026084820152600260a48201526080518160c481855af4801561231857612324575b50803b156103b357604051916302995b5b60e51b835260006004840152602483015281604481608051935af48015612318576123095760805180f35b612312906132f5565b8061038a565b6040513d6000823e3d90fd5b61232d906132f5565b826122cd565b61233c906132f5565b8461227d565b346103b357612350366131af565b90979692919495939773__$49ce59d1ddda15b782622b110191f6a6ba$__95863b156103b357610d25936040519a8b998a988998635ebc0b4360e11b8a526080519d60048b0161397f565b346103b3576020806003193601126103b3576123b5613008565b604051632184acd960e01b815260805160048201526001600160a01b03918216602482015290828260448173__$49ce59d1ddda15b782622b110191f6a6ba$__5af49182156103a65760805192612411575b5060405191168152f35b9091508281813d8311612441575b612429818361331f565b810103126103b35761243a9061335f565b9083612407565b503d61241f565b346103b3576020806003193601126103b357612462613008565b60405163276dcfeb60e11b815260805160048201526001600160a01b039091166024820152818160448173__$49ce59d1ddda15b782622b110191f6a6ba$__5af49081156103a65760805191610c6a575063ffffffff60405191168152f35b346103b35760403660031901126103b3576124da613008565b6124e26130a9565b604051631eab285960e21b815260805160048201526001600160a01b03928316602482015263ffffffff90911660448201529060208260648173__$49ce59d1ddda15b782622b110191f6a6ba$__5af49081156103a657608051916107fd576020925060405191168152f35b346103b35760603660031901126103b357612567613008565b61256f6130a9565b906125786130bc565b73__$49ce59d1ddda15b782622b110191f6a6ba$__803b156103b357610d259360405180958194829363a4453ec560e01b84526080519760048501613523565b346103b3576020806003193601126103b3576125d2613008565b60405163187d2b1360e31b815260805160048201526001600160a01b039091166024820152818160448173__$49ce59d1ddda15b782622b110191f6a6ba$__5af49081156103a65760805191610c6a575063ffffffff60405191168152f35b346103b3576117df606061264436613161565b61265295919593929361390e565b5060405163d6e2ac4f60e01b8152958694859460048601613431565b346103b357610d8c60a061268136613110565b61268f95919593929361390e565b5060405163464b46fd60e11b8152600060048201526001600160a01b03938416602482015293909216604484015263ffffffff948516606484015293166084820152918290819060a4820190565b346103b35760203660031901126103b3576126f6613008565b60408051624c9bfd60e11b815260805160048201526001600160a01b03928316602482015291908260448173__$49ce59d1ddda15b782622b110191f6a6ba$__5af49182156103a657604092608051918291612763575b5063ffffffff9192845193168352166020820152f35b63ffffffff92506127819150843d861161179b5761178c818361331f565b909161274d565b346103b3576020806003193601126103b3576127a2613008565b604051634a7fd3db60e01b815260805160048201526001600160a01b039091166024820152818160448173__$49ce59d1ddda15b782622b110191f6a6ba$__5af49081156103a65760805191610c6a575063ffffffff60405191168152f35b346103b35760403660031901126103b35761281a613008565b61282261301e565b906000805160206139e283398151915260606040516040815260805160408201526080516020820152a1604051637e168e6360e11b815260805160048201526001600160a01b038281166024830152909216604483015261010073__$49ce59d1ddda15b782622b110191f6a6ba$__8184606481845af49182156103a6576080518095819282956128ea575b505060016128be911515146132c3565b813b156103b357610d259460405195869485938493635467b2b360e01b85526080519860048601613431565b6128be97506001955061290d935080919250903d10610be957610bd1818361331f565b5091979195909350906128ae565b346103b35760203660031901126103b357612934613008565b73__$49ce59d1ddda15b782622b110191f6a6ba$__803b156103b3576040516302995b5b60e51b81526080805160048301526001600160a01b039093166024820152915190829060449082905af480156103a6576103905760805180f35b346103b35760603660031901126103b3576129ab613008565b60206129b56130a9565b6129bd6130bc565b92611ffb604051948593849363331adc3560e11b855260048501613523565b346103b35760203660031901126103b35760206129ff6129fa613008565b6135b9565b604051908152f35b346103b357610d8c60a0612a1a36613110565b612a2895919593929361390e565b50604051632151e2c960e21b8152600060048201526001600160a01b03938416602482015293909216604484015263ffffffff948516606484015293166084820152918290819060a4820190565b346103b35760603660031901126103b357612a8f613008565b612a976130a9565b90612aa0613034565b73__$49ce59d1ddda15b782622b110191f6a6ba$__803b156103b35760405163ae1308e760e01b8152608051600060048301526001600160a01b03948516602483015263ffffffff90951660448201529290911660648301529091908290818060848101610d25565b346103b35760403660031901126103b357612b22613008565b67ffffffffffffffff6024358181116103b357612b439036906004016130e2565b9290604051926040845260805160408501526001946000805160206139e283398151915260606020968888820152a160018060a01b0392612baa84861694856080515260028852612b9c816040608051205416156132c3565b6080515460401c16156132c3565b836080515286865260805160408120938311610758575082546080518882811c92168015612d7d575b8883101461073757509081601f849311612d26575b5060805190601f8311600114612cc35760805192612cb8575b5050600019600383901b1c191690861b1790555b60805152600282526080519260408420906bffffffffffffffffffffffff60a01b82541617905582549068010000000000000000600160e01b039060401b169067ffffffffffffffff63ffffffff60e01b0116178255600581526040822090600b6103e89163ffffffff1993838582541617905560068152604085208385825416179055600a815260408520838582541617905552604083209182541617905580f35b013590508780612c01565b8482526080518881208a95509290601f198516905b8a828210612d105750508411612cf6575b505050811b019055612c15565b0135600019600384901b60f8161c19169055878080612ce9565b8385013586558c97909501949283019201612cd8565b9091508360805152608051878120601f850160051c810192898610612d73575b8594939291601f8c920160051c01925b838110612d6557505050612be8565b8281558695508b9101612d56565b9092508290612d46565b91607f1691612bd3565b346103b357608051806003193601126103a357604051631dd94a4360e21b8152608051600482015260208160248173__$49ce59d1ddda15b782622b110191f6a6ba$__5af480156103a65760805190612df0575b6040516001600160a01b039091168152602090f35b506020813d8211612e21575b81612e096020938361331f565b810103126103b357612e1c60209161335f565b612ddb565b3d9150612dfc565b346103b35760403660031901126103b357612e42613008565b612e4a6130a9565b73__$49ce59d1ddda15b782622b110191f6a6ba$__90813b156103b35763ffffffff906040519363d33fbcad60e01b8552608051600486015260018060a01b0316602485015216604483015281606481608051935af480156103a6576123095760805180f35b346103b357608051806003193601126103a357546040805163ffffffff8084168252602084811c9091169082015291811c6001600160a01b031690820152606090f35b346103b35760403660031901126103b357612f0c613008565b612f1461301e565b90612f1d61390e565b50604051637e168e6360e11b815260805160048201526001600160a01b0391821660248201529116604482015261010090818160648173__$49ce59d1ddda15b782622b110191f6a6ba$__5af480156103a65760805190819282839084928594611919575060405196508695610a43958761304a565b346109a757602090816003193601126109a757612fae613008565b63d6bb8c2d60e01b825260805160048301526001600160a01b03166024820152818160448173__$49ce59d1ddda15b782622b110191f6a6ba$__5af49081156103a65760805191610c6a575063ffffffff60405191168152f35b600435906001600160a01b03821682036109a757565b602435906001600160a01b03821682036109a757565b604435906001600160a01b03821682036109a757565b901515815290151560208083019190915263ffffffff9283166040808401919091529383166060830152938216608082015284516001600160a01b031660a082015292840151811660c084015292015190911660e08201526101000190565b6024359063ffffffff821682036109a757565b6044359063ffffffff821682036109a757565b6084359063ffffffff821682036109a757565b9181601f840112156109a75782359167ffffffffffffffff83116109a757602083818601950101116109a757565b60809060031901126109a7576001600160a01b039060043582811681036109a7579160243590811681036109a7579063ffffffff9060443582811681036109a7579160643590811681036109a75790565b60809060031901126109a7576004356001600160a01b03811681036109a7579063ffffffff60243581811681036109a7579160443582811681036109a7579160643590811681036109a75790565b6101209060031901126109a7576001600160a01b039060043582811681036109a7579163ffffffff9160243583811681036109a7579260443581811681036109a7579260643582811681036109a7579260843583811681036109a7579260a43581811681036109a7579260c43590811681036109a7579160e43582811681036109a757916101043590811681036109a75790565b60a09060031901126109a7576001600160a01b0360043581811681036109a7579160243582811681036109a7579160443590811681036109a7579063ffffffff9060643582811681036109a7579160843590811681036109a75790565b60005b8381106132b35750506000910152565b81810151838201526020016132a3565b156132ca57565b634e487b7160e01b600052600160045260246000fd5b90600163ffffffff809316019182116116d257565b67ffffffffffffffff811161330957604052565b634e487b7160e01b600052604160045260246000fd5b90601f8019910116810190811067ffffffffffffffff82111761330957604052565b519081151582036109a757565b519063ffffffff821682036109a757565b51906001600160a01b03821682036109a757565b91908260609103126109a7576040516060810181811067ffffffffffffffff8211176133095760405260406133c68183956133ad8161335f565b85526133bb6020820161334e565b60208601520161334e565b910152565b9091610100828403126109a7576133e182613341565b926133ee60208401613341565b926133fb6040820161334e565b9261342161340b6060840161334e565b9360a061341a6080860161334e565b9401613373565b90565b506040513d6000823e3d90fd5b600081526001600160a01b03909116602082015263ffffffff91821660408201529181166060830152909116608082015260a00190565b6001600160a01b038181166000908152600260205260409020548116156134c75760018160406000205416146134c7576134b76134be9260018060a01b03166000526002602052604060002090565b5416613468565b613421906132e0565b5050600090565b63ffffffff8091169081146116d25760010190565b63ffffffff90811660001901919082116116d257565b63ffffffff91821690821603919082116116d257565b908160209103126109a7576134219061334e565b600081526001600160a01b03909116602082015263ffffffff91821660408201529116606082015260800190565b906060828203126109a75761342191613373565b818102929181159184041417156116d257565b8115613582570490565b634e487b7160e01b600052601260045260246000fd5b919082018092116116d257565b63ffffffff16604d81116116d257600a0a90565b906000906001600160a01b03831615613885578173__$49ce59d1ddda15b782622b110191f6a6ba$__5b6000546135fd9060201c63ffffffff165b63ffffffff1690565b9263ffffffff938486161015613842579085916001905b6136336135f48861362e60005463ffffffff9060201c1690565b6134f9565b8683161161382e576000945b604080516351dc622d60e11b815260006004808301919091526001600160a01b038816602483015263ffffffff8b81166044840152861660648301526020939290918b91908b9086816084818d5af4908115613821575b6000916137f4575b50168b8b1610156137de57516306a6c17960e41b815260009281019283526001600160a01b038916602084015263ffffffff9182166040840152818716606084810191909152918a1660808401529093929184908290819060a00103818a5af49384156137d1575b6000946137a2575b50508251613724906001600160a01b03166135b9565b61379c9361378a6135f4613780613766613758613796986137526135f4613790999289015163ffffffff1690565b90613565565b94516001600160a01b031690565b6001600160a01b0316600090815260096020526040902090565b5463ffffffff1690565b90613578565b90613598565b956134ce565b9461363f565b6137c2929450803d106137ca575b6137ba818361331f565b810190613551565b91388061370e565b503d6137b0565b6137d9613424565b613706565b505050955050906137ee906134ce565b90613614565b6138149150873d891161381a575b61380c818361331f565b81019061350f565b3861369e565b503d613802565b613829613424565b613696565b9450509361383c91506134ce565b926135e3565b9492505061388192506138669061379061386160005463ffffffff1690565b6135a5565b91829160018060a01b0316600052600e602052604060002090565b5590565b915090565b91908260409103126109a75761342160206138a48461335f565b930161334e565b908160609103126109a7576138bf81613341565b9161342160406138a46020850161334e565b60008082526001600160a01b039283166020830152919092166040830152606082015263ffffffff9182166080820152911660a082015260c00190565b604051906060820182811067ffffffffffffffff8211176133095760405260006040838281528260208201520152565b91908260409103126109a75761342160206138a484613341565b909160a0828403126109a75761342161397083613341565b93604061341a6020860161334e565b600081526001600160a01b03918216602082015263ffffffff92831660408201529282166060840152928116608083015292831660a082015292821660c084015290921660e0820152918116610100830152909116610120820152610140019056fe1fbe8156cf474a4c0655ec4c8974520601db142702d1591fde9b9df5cbae5174a2646970667358221220b57d7866eef91ca6b797aad33e684b36e0d3cc51ca31e9cce1ae3a622efc7b5464736f6c63430008110033",
    "linkReferences": {
      "src/Anthill.sol": {
        "AnthillInner": [
          {
            "start": 759,
            "length": 20
          },
          {
            "start": 1073,
            "length": 20
          },
          {
            "start": 2046,
            "length": 20
          },
          {
            "start": 2203,
            "length": 20
          },
          {
            "start": 2409,
            "length": 20
          },
          {
            "start": 2613,
            "length": 20
          },
          {
            "start": 2868,
            "length": 20
          },
          {
            "start": 3177,
            "length": 20
          },
          {
            "start": 3302,
            "length": 20
          },
          {
            "start": 3523,
            "length": 20
          },
          {
            "start": 3719,
            "length": 20
          },
          {
            "start": 3855,
            "length": 20
          },
          {
            "start": 4029,
            "length": 20
          },
          {
            "start": 4386,
            "length": 20
          },
          {
            "start": 4477,
            "length": 20
          },
          {
            "start": 4586,
            "length": 20
          },
          {
            "start": 4681,
            "length": 20
          },
          {
            "start": 4799,
            "length": 20
          },
          {
            "start": 4870,
            "length": 20
          },
          {
            "start": 4940,
            "length": 20
          },
          {
            "start": 5005,
            "length": 20
          },
          {
            "start": 5041,
            "length": 20
          },
          {
            "start": 5120,
            "length": 20
          },
          {
            "start": 5198,
            "length": 20
          },
          {
            "start": 5263,
            "length": 20
          },
          {
            "start": 5340,
            "length": 20
          },
          {
            "start": 5416,
            "length": 20
          },
          {
            "start": 5485,
            "length": 20
          },
          {
            "start": 5520,
            "length": 20
          },
          {
            "start": 5589,
            "length": 20
          },
          {
            "start": 5719,
            "length": 20
          },
          {
            "start": 6166,
            "length": 20
          },
          {
            "start": 6413,
            "length": 20
          },
          {
            "start": 6544,
            "length": 20
          },
          {
            "start": 6644,
            "length": 20
          },
          {
            "start": 6815,
            "length": 20
          },
          {
            "start": 6976,
            "length": 20
          },
          {
            "start": 7062,
            "length": 20
          },
          {
            "start": 7248,
            "length": 20
          },
          {
            "start": 7356,
            "length": 20
          },
          {
            "start": 7545,
            "length": 20
          },
          {
            "start": 7730,
            "length": 20
          },
          {
            "start": 8059,
            "length": 20
          },
          {
            "start": 8242,
            "length": 20
          },
          {
            "start": 8319,
            "length": 20
          },
          {
            "start": 8403,
            "length": 20
          },
          {
            "start": 8777,
            "length": 20
          },
          {
            "start": 9102,
            "length": 20
          },
          {
            "start": 9237,
            "length": 20
          },
          {
            "start": 9409,
            "length": 20
          },
          {
            "start": 9552,
            "length": 20
          },
          {
            "start": 9645,
            "length": 20
          },
          {
            "start": 9777,
            "length": 20
          },
          {
            "start": 10070,
            "length": 20
          },
          {
            "start": 10241,
            "length": 20
          },
          {
            "start": 10417,
            "length": 20
          },
          {
            "start": 10601,
            "length": 20
          },
          {
            "start": 10965,
            "length": 20
          },
          {
            "start": 11754,
            "length": 20
          },
          {
            "start": 11903,
            "length": 20
          },
          {
            "start": 12168,
            "length": 20
          },
          {
            "start": 12296,
            "length": 20
          },
          {
            "start": 13826,
            "length": 20
          }
        ]
      }
    }
  },
  "methodIdentifiers": {
    "addDagVote(address,address,uint32)": "dceb5b79",
    "calculateReputation(address)": "27c06fd5",
    "changeDistDepthFromRecCellOnOp(address,uint32,uint32,uint32,uint32)": "c9aa10cf",
    "changeDistDepthRec(address,uint32,uint32,uint32,uint32,uint32,address,uint32,uint32)": "76a0ac6a",
    "changeDistDepthSent(address,uint32,uint32,uint32,uint32,uint32,address,uint32,uint32)": "6961d524",
    "collapseRecDagVoteIntoColumn(address,uint32)": "1008d193",
    "collapseSentDagVoteIntoColumn(address,uint32)": "cb819755",
    "dag()": "05279858",
    "findDistAtSameDepth(address,address)": "a16877d5",
    "findLastRecDagVoteAtDistDepth(address,uint32,uint32)": "cfaced4c",
    "findLastSentDagVoteAtDistDepth(address,uint32,uint32)": "7199f96b",
    "findNthParent(address,uint32)": "50ab6631",
    "findRecDagVote(address,address)": "b9aae95d",
    "findRecDagVotePosAtDistDepth(address,address,uint32,uint32)": "3d325c36",
    "findRecTreeVotePos(address,address)": "a571dcd7",
    "findRelDepth(address,address)": "dd88aa95",
    "findRelRoot(address)": "3aaf189b",
    "findSDistDepth(address,address)": "7fb2ed2a",
    "findSentDagVote(address,address)": "0520b5a4",
    "findSentDagVotePosAtDistDepth(address,address,uint32,uint32)": "270e32cd",
    "handleDagVoteMoveFall(address,address,address,uint32,uint32)": "71b5b199",
    "handleDagVoteMoveRise(address,address,address,uint32,uint32)": "d443c431",
    "handleLeavingVoterBranch(address)": "f358f683",
    "joinTree(address,string,address)": "eeaebe87",
    "joinTreeAsRoot(address,string)": "199cd8c0",
    "leaveTree(address)": "ff8f07de",
    "moveRecDagVoteDownLeftRising(address,uint32)": "a5c13998",
    "moveTreeVote(address,address)": "c5ce0318",
    "pullUpBranch(address,address)": "c9f05d09",
    "readDepth(address)": "825a3855",
    "readMaxRelRootDepth()": "e614a68d",
    "readName(address)": "806df959",
    "readRecDagVote(address,uint32,uint32,uint32)": "c0a6033c",
    "readRecDagVoteCount(address,uint32,uint32)": "7cb7ed44",
    "readRecDagVoteDepthDiff(address)": "d5a64361",
    "readRecDagVoteDistDiff(address)": "519bf72d",
    "readRecTreeVote(address,uint32)": "ebc9bd62",
    "readRecTreeVoteCount(address)": "49bb27e0",
    "readReputation(address)": "b062aaec",
    "readRoot()": "10839bf7",
    "readSentDagVote(address,uint32,uint32,uint32)": "429ccb05",
    "readSentDagVoteCount(address,uint32,uint32)": "2e4ba760",
    "readSentDagVoteDepthDiff(address)": "ab70b4c6",
    "readSentDagVoteDistDiff(address)": "39273f59",
    "readSentDagVoteTotalWeight(address)": "00a1efe5",
    "readSentTreeVote(address)": "59bf02a5",
    "recDagAppend(address,uint32,uint32,address,uint32,uint32)": "e1d9c364",
    "removeDagVote(address,address)": "37ba0eb1",
    "removeRecDagVoteCell(address,uint32,uint32)": "506ce800",
    "sortRecDagVoteColumn(address,uint32,address)": "26a049e8",
    "sortRecDagVoteColumnDescendants(address,address)": "b529ef4c",
    "sortSentDagVoteColumn(address,uint32,address)": "a3a88483",
    "switchPositionWithParent(address)": "6be22cd2",
    "switchTreeVoteWithParent(address)": "33df4a35",
    "unsafeReplaceRecDagVoteAtDistDepthPosWithLast(address,uint32,uint32,uint32)": "b740587e"
  },
  "id": 16
}